:100000000C941D010C944A010C944A010C944A0171
:100010000C944A010C944A010C944A010C944A0134
:100020000C944A010C944A010C944A010C944A0124
:100030000C944A010C944A010C944A010C944A0114
:100040000C944A010C944A010C944A010C944A0104
:100050000C944A010C944A010C944A010C947608C1
:100060000C944A010C944A010C944A010C944A01E4
:100070000C944A010C944A010C944A010C944A01D4
:100080000C944A010C944A010C944A010C944A01C4
:100090000C948C050C9413060C944A010C941516C0
:1000A0000C944A010C944A010C944A010C944A01A4
:1000B0000C944A010C944A010C944A010C944A0194
:1000C0000C944A010C944A010C944A010C944A0184
:1000D0000C944A010C944A010C944A010C944A0174
:1000E0000C944A01084AD73B3BCE016E84BCBFFD4D
:1000F000C12F3D6C74319ABD56833DDA3D00C77FF8
:1001000011BED9E4BB4C3E916BAAAABE0000008090
:100110003F00002100240027002A002D003000337A
:100120000001010000040107010A0100002200256E
:100130000028002B002E00310034000201000005D1
:100140000108010B01000020002300260029002CDB
:10015000002F003200000100000301060109010523
:10016000050505070508080808020202020A0A0830
:100170000804040404010101010101010103030356
:100180000303030303040707070C0C0C0C0C0C0CF3
:100190000C0202020206060606060606060B0B0BFA
:1001A0000B0B0B0B0B010210202008081020401035
:1001B000204080020102010804020101020408102B
:1001C0002040808040201008040201800402018049
:1001D0004020100804020108040201010204081072
:1001E00020408001020408102040800000090A021B
:1001F000080B0C0D070603040100000000000000BE
:1002000000000000000000000000000000000000EE
:100210000000000000000011100F000000000000AE
:1002200000000000000000000000000000000000CE
:100230000000BE01C6056911B70111241FBECFEF32
:10024000D1E2DEBFCDBF00E00CBF12E0A0E0B2E023
:10025000E8E9F5E300E00BBF02C007900D92AC3473
:10026000B107D9F71BBE14E0ACE4B2E001C01D92A7
:10027000AC3EB107E1F712E0C8E3D2E004C0229738
:10028000FE010E94BB1AC233D107C9F70E9464085D
:100290000C94BF1A0C940000AF92BF92CF92DF92E1
:1002A000EF92FF920F931F938130910509F049C09F
:1002B0006F5F7F4F09F052C000D000D0E0900E0277
:1002C000F0900F020091100210911102A090120202
:1002D000B0901302C0901402D090150280914C028D
:1002E00090914D02A0914E02B0914F02EDB7FEB732
:1002F00081839283A383B4831682158282E692E07F
:100300006AE572E04EE552E026E532E00E94920D89
:100310008DB79EB706960FB6F8949EBF0FBE8DBFE1
:100320008BE992E00E9479108CE992E04BE057ED66
:1003300063E27CE30E94270E8EEB92E00E9419118B
:100340000DC0892B59F46F5F7F4F41F48CE992E027
:100350000E94490E8BE992E00E9417101F910F91A5
:10036000FF90EF90DF90CF90BF90AF90089580E026
:1003700090E06FEF7FEF0E944C01089581E090E0E4
:100380006FEF7FEF0E944C010895AF92BF92CF9222
:10039000DF92EF92FF920F931F9300911B02109137
:1003A0001C02809116026BE346E020E532E00E94D9
:1003B000D9099091500280E02091510230E0822BC7
:1003C000932B90937103809370039091520280E07D
:1003D0002091530230E0822B932B909373038093F0
:1003E00072039091540280E02091550230E0822BFC
:1003F000932B909375038093740300911B021091CB
:100400001C028091160263E446E020E532E00E947F
:10041000D9099091500280E0E0905102FF24E82A2F
:10042000F92AF0927703E09276032091520230E0AD
:10043000922F8827822B932B9093790380937803B4
:100440009091540280E02091550230E0822B932B52
:1004500090937B0380937A0360917203709173038E
:10046000709561957F4F882777FD8095982F0E9422
:100470002E195B016C016091740370917503709586
:1004800061957F4F882777FD8095982F0E942E19C0
:100490009B01AC01C601B5010E943C1820E030E090
:1004A00044E353E40E940E1A2BED3FE049E450E48C
:1004B0000E949318609368037093690380936A03A2
:1004C00090936B030027F7FC0095102FC801B7012C
:1004D0000E942E1920E030E043E053E40E9493187C
:1004E0009B01AC01CB01DA0180936C0390936D0307
:1004F000A0936E03B0936F038CE992E0A901BD0154
:100500000E944F0E409168035091690360916A0305
:1005100070916B038CE992E00E94240F8CE992E0C9
:100520000E9406107B018C0160937C0370937D0315
:1005300080937E0390937F0320E030E040E050E022
:100540000E94031A18165CF4C801B70120E030E0DD
:1005500040E252E40E94031A18165CF027C0C8015A
:10056000B70120E030E040E252EC0E948F1888236F
:10057000ECF481E090E0909381038093800382E625
:1005800092E060E070E00E94210C80E090E0A0E04A
:10059000B0E080935E0290935F02A0936002B093FC
:1005A00061028BE992E00E94181058C0809180038C
:1005B00090918103019751F410928103109280036E
:1005C00082E692E061E070E00E94210C80917C0361
:1005D00090917D03A0917E03B0917F0380935A0296
:1005E00090935B02A0935C02B0935D0282E692E07E
:1005F0000E94750CE0905E02F0905F020091600234
:1006000010916102C801B70120E030E040E050E005
:100610000E94031A18168CF4C801B7010E94FB1837
:100620008B019C01AB014C5E5F4F8BE992E0065F52
:100630001F4FB8010E94561011C0C801B7010E9497
:10064000FB182AE030E0261B370B44E150E0461B44
:10065000570B8BE992E0B9010E9433101F910F9163
:10066000FF90EF90DF90CF90BF90AF9008950F93E1
:100670001F9302E813E04091560250915702609197
:10068000580270915902C80122E030E00E946108CE
:10069000C8016CE20E9467064091680350916903AB
:1006A00060916A0370916B03C80122E030E00E9400
:1006B0006108C8016CE20E9467068CE992E00E9422
:1006C0000610AB01BC01C80122E030E00E946108C5
:1006D000C8016CE20E946706C80168E270E04AE067
:1006E00050E00E945E071F910F9108958EEB92E0FB
:1006F0000E94C5100895AF92BF92CF92DF92EF9201
:10070000FF920F931F938EE694E00E94091282E0FD
:100710008093B80082E893E040E051EE60E070E042
:1007200026E00E945204809116026BE140E00E9494
:10073000C90961E070E080E090E00E942E0980919C
:1007400016026CE140E00E94C90961E070E080E0BF
:1007500090E00E942E09809116026BE640E00E9414
:10076000C90961E070E080E090E00E942E0980916C
:10077000160267E342E00E94C9090EEB12E06091A5
:100780001702709118028091190290911A020E942A
:100790000019AB01BC01C80125EC31E00E94101129
:1007A000C80142E350E060E070E027E333E00E94DC
:1007B000101192E6A92E92E0B92EC50140E050E05A
:1007C00066E173EC00E010E026E133E40E94A50B43
:1007D000C50161E070E00E94210CC5016AE070E093
:1007E0000E94570B40910E0250910F02609110022F
:1007F00070911102009112021091130220911402C3
:1008000030911502C0904C02D0904D02E0904E0203
:10081000F0904F02C5010E948B0A8AE999E9A9E18B
:10082000B0E48093560290935702A0935802B0937D
:1008300059021F910F91FF90EF90DF90CF90BF90E2
:10084000AF900895DC015C968C915C97FD01E80FF8
:10085000F11DE35AFF4F20815C968C915C9790E0EC
:1008600001968F7390705C968C935C975696ED9181
:10087000FC91579720835096ED91FC915197808180
:10088000806480835B969C915B975C968C915C976F
:10089000981739F45296ED91FC91539780818F7D92
:1008A00080830895DF92EF92FF920F931F93CF936F
:1008B000DF93EC017A018B01D22EE889F98982E07D
:1008C0008083403081EE580780E0680780E0780739
:1008D000A1F060E079E08DE390E0A80197010E942B
:1008E000971A2150304040405040569547953795D3
:1008F000279580E12030380798F0E889F98910823F
:1009000060E874E88EE190E0A80197010E94971AD0
:100910002150304040405040569547953795279597
:10092000EC85FD853083EE85FF852083188EEC896C
:10093000FD89D082EA89FB89808180618083EA8990
:10094000FB89808188608083EA89FB898081806857
:100950008083EA89FB8980818F7D8083DF91CF91BD
:100960001F910F91FF90EF90DF900895FC01218D72
:10097000828D30E0205C3F4F281B31092F7330708F
:10098000C9010895FC01918D828D981719F42FEFFC
:100990003FEF06C0828DE80FF11D858D282F30E0D6
:1009A000C9010895DC0159969C9159975A968C91EA
:1009B0005A97981719F42FEF3FEF10C05A968C9161
:1009C0005A97FD01E80FF11D958D5A968C915A9713
:1009D0008F5F8F735A968C93292F30E0C901089549
:1009E000CF93DF93EC01888D882361F419C08C913B
:1009F00085FF0AC0E889F989808185FF05C0CE019D
:100A00000E942204AA89BB898C9185FD05C0E889D2
:100A1000F989808186FD04C00FB607FEE8CFF4CFC8
:100A2000DF91CF9108950F931F93CF93DF93EC0144
:100A3000062F9B8D8C8D981791F5E889F989808117
:100A400085FF2DC0EE89FF896083E889F98980815F
:100A5000806480831DC00FB607FC08C0E889F9894F
:100A6000808185FF03C0CE010E9422048C8D18175F
:100A700091F38B8DFE01E80FF11DE35AFF4F0083C8
:100A80001B8FEA89FB8980818062808381E0888F67
:100A900081E090E0DF91CF911F910F9108951B8D20
:100AA0001F5F1F73E3CF80E090E0892B51F080E05F
:100AB00090E0892B31F00E940000882311F00E9401
:100AC000000089E096E0892B51F080E090E0892BCE
:100AD00031F00E940906882311F00E94000080E096
:100AE00090E0892B51F080E090E0892B31F00E945A
:100AF0000000882311F00E94000080E090E0892B24
:100B000051F080E090E0892B31F00E9400008823B2
:100B100011F00E94000008951F920F920FB60F92DD
:100B20000BB60F9211242F938F939F93EF93FF9304
:100B3000E0919203F0919303808182FD16C0E091D1
:100B40009803F0919903208190919B039F5F9F737D
:100B500080919C03981771F0E0919B03F0E0EE57B1
:100B6000FC4F258F90939B0305C0E0919803F09173
:100B70009903E081FF91EF919F918F912F910F90B9
:100B80000BBE0F900FBE0F901F901895109285030B
:100B90001092840388EE93E0A0E0B0E08093860397
:100BA00090938703A0938803B093890387E292E030
:100BB00090938303809382038DEC90E090938F0356
:100BC00080938E038CEC90E090939103809390033C
:100BD00088EC90E0909393038093920389EC90E0EB
:100BE00090939503809394038AEC90E090939703FD
:100BF000809396038EEC90E09093990380939803F2
:100C000010929B0310929C0310929D0310929E03DE
:100C1000089582E893E00E94B60420E0892B09F051
:100C200021E0822F08951F920F920FB60F920BB6FC
:100C30000F9211242F933F934F935F936F937F9362
:100C40008F939F93AF93BF93EF93FF9382E893E0CB
:100C50000E942204FF91EF91BF91AF919F918F91DC
:100C60007F916F915F914F913F912F910F900BBEAC
:100C70000F900FBE0F901F901895CF92DF92EF92BA
:100C8000FF920F931F93CF93DF937C016B018A0137
:100C9000C0E0D0E00FC0D6016D916D01D701ED919C
:100CA000FC910190F081E02DC7011995C80FD91F63
:100CB000015010400115110571F7CE01DF91CF9160
:100CC0001F910F91FF90EF90DF90CF900895DC017E
:100CD000ED91FC910190F081E02D19950895EF922E
:100CE000FF920F931F938C01DC01ED91FC91019019
:100CF000F081E02D6DE019957C01D801ED91FC911A
:100D00000190F081E02DC8016AE019959C012E0D3B
:100D10003F1DC9011F910F91FF90EF900895CF9350
:100D2000DF93EC016115710519F420E030E00FC08C
:100D3000DB010D900020E9F71197A61BB70BE881A6
:100D4000F9810280F381E02DAD0119959C01C90163
:100D5000DF91CF9108954F925F927F928F929F92F1
:100D6000AF92BF92CF92DF92EF92FF920F931F93B9
:100D7000DF93CF93CDB7DEB7A1970FB6F894DEBF60
:100D80000FBECDBF2C01742ECB01223008F42AE017
:100D900019A231E2C32ED12CCC0EDD1E822E992455
:100DA000AA24BB24672D752FA50194010E94971AD0
:100DB00079018A01C801B701A50194010E94781A3E
:100DC000472D461B0894C108D1084A3014F4405DF1
:100DD00001C0495CF6014083E114F10401051105ED
:100DE00021F07E2C5F2DC801DDCFC201B6010E942B
:100DF0008F06A1960FB6F894DEBF0FBECDBFCF9180
:100E0000DF911F910F91FF90EF90DF90CF90BF90F7
:100E1000AF909F908F907F905F904F900895DC01EE
:100E20002115310541F4ED91FC910190F081E02D07
:100E3000642F199508950E94AB060895CF92DF9212
:100E4000EF92FF920F931F93CF93DF93EC016A0110
:100E50007B012115310541F4E881F9810190F08190
:100E6000E02D642F19951FC02A303105D1F477FF8A
:100E700017C0E881F9810190F081E02D6DE21995AC
:100E80008C0144275527BA014C195D096E097F0969
:100E9000CE012AE00E94AB069801280F391F04C03A
:100EA0002AE00E94AB069C01C901DF91CF911F91FE
:100EB0000F91FF90EF90DF90CF900895CF92DF9247
:100EC000EF92FF920F931F936C017B019A01002711
:100ED000F7FC0095102FB801A7010E941E078C0196
:100EE000C6010E946F06080F191FC8011F910F91BC
:100EF000FF90EF90DF90CF9008957F928F929F9216
:100F0000AF92BF92CF92DF92EF92FF920F931F9317
:100F1000CF93DF934C017A018B01722ECB01BA0182
:100F2000A80197010E94741A882321F0C40160E08F
:100F300072E021C0C0E0D0E057016801E894D7F822
:100F4000C601B5012FEF3FEF4FE75FE70E94741A2C
:100F5000882351F4C601B5012FEF3FEF4FE75FE75C
:100F60000E948F18181614F0C1E0D0E0219739F0D4
:100F7000C40164E072E00E948F06EC0193C0C801D6
:100F8000B7012FEF3FEF4FE75FE40E94031A1816F7
:100F900054F0C801B7012FEF3FEF4FE75FEC0E941D
:100FA0008F18882324F4C40168E072E0E4CFC801FC
:100FB000B70120E030E040E050E00E948F1887FD4C
:100FC00003C0C0E0D0E00EC0D401ED91FC910190CF
:100FD000F081E02DC4016DE21995EC0117FB10952D
:100FE00017F9109520E030E040E05FE3DD240BC00E
:100FF000CA01B90120E030E040E251E40E949318B8
:101000009B01AC01D394D71498F3C801B7010E9497
:10101000C9175B016C010E9400197B018C01C4019E
:10102000B801A7012AE030E00E940F07C80FD91FBE
:10103000772039F0C4016CE072E00E948F06C80F7F
:10104000D91FC801B7010E942C199B01AC01C60130
:10105000B5010E94C81724C020E030E040E251E40E
:101060000E940E1A7B018C010E94FB185B016C012F
:10107000CC24B7FCC094DC2CC401B601A5012AE045
:1010800030E00E941E07C80FD91FC601B5010E949B
:101090002E199B01AC01C801B7010E94C8177A94B0
:1010A0007720D1F6CE01DF91CF911F910F91FF9064
:1010B000EF90DF90CF90BF90AF909F908F907F90F8
:1010C00008950E947D070895CF93DF930E94CC0876
:1010D0000E947B03C3E5D5E00E9476032097E1F3ED
:1010E0000E945305F9CF0E94B11208951F920F92EA
:1010F0000FB60F9211242F933F938F939F93AF932B
:10110000BF938091230490912404A0912504B09171
:101110002604309127040196A11DB11D232F2D5FB8
:101120002D3720F02D570196A11DB11D20932704C6
:101130008093230490932404A0932504B093260461
:1011400080911F0490912004A0912104B091220469
:101150000196A11DB11D80931F0490932004A093BC
:101160002104B0932204BF91AF919F918F913F9141
:101170002F910F900FBE0F901F9018958FB7F89476
:101180002091230430912404409125045091260499
:101190008FBFB901CA010895789484B5826084BD77
:1011A00084B5816084BD85B5826085BD85B581606B
:1011B00085BDEEE6F0E0808181608083E1E8F0E0CB
:1011C0001082808182608083808181608083E0E8FA
:1011D000F0E0808181608083E1EBF0E080818460D9
:1011E0008083E0EBF0E0808181608083E1E9F0E0E2
:1011F000808182608083808181608083E0E9F0E08B
:10120000808181608083E1EAF0E080818260808378
:10121000808181608083E0EAF0E08081816080836A
:10122000E1E2F1E08081826080838081816080835F
:10123000E0E2F1E0808181608083EAE7F0E0808194
:1012400084608083808182608083808181608083EC
:101250008081806880831092C1000895EF92FF9290
:101260000F931F93CF93DF937B018C013FB7F894CB
:1012700080911F0490912004A0912104B091220438
:1012800026B5A89B05C02F3F19F00196A11DB11DE1
:101290003FBFBA2FA92F982F8827820F911DA11D1C
:1012A000B11D52E0880F991FAA1FBB1F5A95D1F795
:1012B000EC0130C00E9449133FB7F89480911F049D
:1012C00090912004A0912104B091220426B5A89BFE
:1012D00005C02F3F19F00196A11DB11D3FBFBA2FC8
:1012E000A92F982F8827820F911DA11DB11D32E0D3
:1012F000880F991FAA1FBB1F3A95D1F78C1B9D0B16
:10130000885E9340B8F20894E108F10801091109D8
:10131000C851DC4FE114F1040105110559F6DF91C4
:10132000CF911F910F91FF90EF900895EF92FF9250
:101330000F931F93CF93DF93582F162FE42E022F76
:10134000F32E8EE694E0652F0E942F118EE694E036
:10135000612F0E94B111202F3F2DC901EC0110E037
:1013600006C08EE694E069910E94B1111F5F1E15C0
:10137000C0F38EE694E00E94F41190E0882309F413
:1013800091E0892FDF91CF911F910F91FF90EF9006
:101390000895DF93CF930F92CDB7DEB7498341E035
:1013A0009E012F5F3F4F0E9496090F90CF91DF91D2
:1013B00008952F923F924F925F926F927F928F92F9
:1013C0009F92AF92BF92CF92DF92EF92FF920F93D4
:1013D0001F93DF93CF9300D00F920F92CDB7DEB75C
:1013E000882E6983942E3B832A830E94BE085B016A
:1013F0006C01FF24EE24292C332428016624772451
:101400004BC08EE694E0682D0E942F118EE694E08A
:1014100069810E94B1118EE694E00E94F4118EE67B
:1014200094E0682D0E942F11A1014E1951094132FB
:10143000510514F040E250E08EE694E0682D0E94E1
:1014400005122F2D332727FD30958A819B81280F88
:10145000391F3D832C838EE694E00E943911892B3D
:1014600009F452C00115110561F00E94BE086A1905
:101470007B098C099D09641575058605970508F09B
:1014800043C08EE694E00E944211EC81FD8181937D
:10149000FD83EC83F394DFCFE91408F4B2CF011598
:1014A0001105C9F00E94BE086A197B098C099D09C3
:1014B000980140E050E0621773078407950758F0E1
:1014C0002F2D332727FD3095892D90E028173907D8
:1014D00014F4FF24FA948F2D0F900F900F900F901B
:1014E0000F90CF91DF911F910F91FF90EF90DF90C0
:1014F000CF90BF90AF909F908F907F906F905F90B4
:101500004F903F902F900895892DF0E2F91508F43F
:1015100080E2E80EC1CF2F923F924F925F926F927E
:101520007F928F929F92AF92BF92CF92DF92EF9273
:10153000FF920F931F93DF93CF9300D00F92CDB7FD
:10154000DEB71C0149835A836B837C8348015901B0
:1015500026013701CB01BA0120E030E040E050E045
:101560000E948F1887FD8CC0C501B40120E030E0D7
:1015700040E050E00E948F1887FD82C0C701B6018D
:1015800020E030E040E050E00E948F1887FD78C0F6
:1015900089819A81AB81BC81F10180839183A2838F
:1015A000B383D10114968D929D92AD92BC92179700
:1015B000C086D186E286F38664A575A586A597A523
:1015C0000E942C1920E030E04AE754E40E9493186E
:1015D0007B018C0189819A81AB81BC81F101848777
:1015E0009587A687B787C501B401A80197010E9416
:1015F0000E1A5B016C01D10150966D937D938D9312
:101600009C935397C301B201A80197010E949318BC
:101610007B018C01F101648B758B868B978B808DA0
:10162000918D019769F560E070E080E090E029819C
:101630003A814B815C810E94C817D1011C966D9341
:101640007D938D939C931F9760E070E080E090E025
:10165000A60195010E94C817F101608B718B828BE6
:10166000938B60E070E080E090E0A80197010E9419
:10167000C817D10154966D937D938D939C93579782
:101680000F900F900F900F90CF91DF911F910F91BE
:10169000FF90EF90DF90CF90BF90AF909F908F9092
:1016A0007F906F905F904F903F902F900895AF92F2
:1016B000BF92CF92DF92EF92FF920F931F93CF933F
:1016C000DF93EC0116161706ACF55B01CC24B7FCD2
:1016D000C094DC2CC601B5010E942E197B018C013F
:1016E0006CA57DA58EA59FA50E942C199B01AC0120
:1016F000C801B7010E9493187B018C016889798920
:101700008A899B89A80197010E940E1A688B798BA0
:101710008A8B9B8B6C897D898E899F89A801970113
:101720000E9493186C8B7D8B8E8B9F8BACA6BDA675
:10173000CEA6DFA6DF91CF911F910F91FF90EF9082
:10174000DF90CF90BF90AF9008954F925F926F92CD
:101750007F928F929F92AF92BF92CF92DF92EF9241
:10176000FF920F931F93CF93DF93EC013A014B014C
:1017700078018901CB01BA01A80197010E94031ADF
:1017800087FF4EC068AA79AA8AAA9BAAECAAFDAADA
:101790000EAB1FAB88AD882309F442C04C8C5D8C26
:1017A000F201A080B180C280D380C601B501A8013A
:1017B00097010E94031A181634F4F201E082F182B4
:1017C000028313830DC0C601B501A40193010E94D9
:1017D0008F1888232CF4F2016082718282829382B6
:1017E000ACA0BDA0CEA0DFA0ECA8FDA80EA91FA9AB
:1017F000C601B501A80197010E94031A181664F0EA
:10180000E8A8F9A80AA91BA9C601B501A801970172
:101810000E948F18882324F4ECA2FDA20EA31FA31C
:10182000DF91CF911F910F91FF90EF90DF90CF90BC
:10183000BF90AF909F908F907F906F905F904F90F0
:1018400008959F92AF92BF92CF92DF92EF92FF9254
:101850000F931F93CF93DF93EC01992461307105AF
:1018600011F49924939488AD91E08927981681F515
:10187000EC8DFD8DE080F18002811381ECA2FDA250
:101880000EA31FA3EA8DFB8D80819181A281B3817C
:1018900088A799A7AAA7BBA7ACA8BDA8CEA8DFA870
:1018A000C801B701A60195010E94031A181664F039
:1018B000A8A8B9A8CAA8DBA8C801B701A6019501C4
:1018C0000E948F18882324F4ACA2BDA2CEA2DFA26E
:1018D00098AEDF91CF911F910F91FF90EF90DF9025
:1018E000CF90BF90AF909F9008952F923F924F92CC
:1018F0005F926F927F928F929F92AF92BF92CF92A0
:10190000DF92EF92FF920F931F93DF93CF9300D05C
:1019100000D0CDB7DEB79E838D83DC01D8968C9145
:10192000882309F4E5C00E94BE0869837A838B830B
:101930009C83ED81FE8180A191A1A2A1B3A1298107
:101940003A814B815C81281B390B4A0B5B0B84A5C8
:1019500095A5A6A5B7A5281739074A075B0708F478
:10196000C7C0028CF38DE02D2080318042805380EF
:10197000AD81BE815E96ED91FC915F976081718132
:1019800082819381A20191010E94C8173B014C0101
:10199000ED81FE8120893189428953890E940E1A86
:1019A000AD81BE8194962D913D914D915C9197971B
:1019B0000E94C9177B018C01ED81FE8164A375A390
:1019C00086A397A3A4A8B5A8C6A8D7A8A6019501E1
:1019D0000E94031A181674F0ED81FE81A0A8B1A828
:1019E000C2A8D3A8C801B701A60195010E948F180B
:1019F000882344F4AD81BE819496AD92BD92CD9280
:101A0000DC929797C401B301ED81FE812485358571
:101A1000468557850E940E1AAD81BE8194962D9100
:101A20003D914D915C9197970E94C9177B018C0164
:101A3000C201B101ED81FE8120A531A542A553A5CA
:101A40000E94C817AD81BE8154962D913D914D9154
:101A50005C9157970E940E1A9B01AC01C801B70117
:101A60000E94C8177B018C01ED81FE81D4A8C5A816
:101A7000B6A8A7A82D2D3C2D4B2D5A2D0E94031A38
:101A80001816BCF0AD81BE81D096DC90D097D1966F
:101A9000CC90D197D296BC90D297D396AC90C801F7
:101AA000B7012D2D3C2D4B2D5A2D0E948F188823C8
:101AB00034F48D2D9C2DAB2DBA2D7C018D01AD8183
:101AC000BE815C96ED91FC915D97E082F18202838C
:101AD0001383FD0120A631A642A653A689819A81CF
:101AE000AB81BC8180A391A3A2A3B3A381E001C079
:101AF00080E026960FB6F894DEBF0FBECDBFCF9123
:101B0000DF911F910F91FF90EF90DF90CF90BF90EA
:101B1000AF909F908F907F906F905F904F903F908D
:101B20002F9008954F925F926F927F928F929F9223
:101B3000AF92BF92CF92DF92EF92FF920F931F93DB
:101B4000DF93CF93CDB7DEB74C0127013801E88C86
:101B5000F98CFC01558F448F738F628F378F268FDE
:101B600010AE40E050E060E070E000E010E02FE7F1
:101B700033E40E94A50B84E690E0A0E0B0E0F4011D
:101B800084A795A7A6A7B7A780AD882391F1808DDC
:101B9000918DE816F90669F160E070E080E090E070
:101BA00024853585468557850E94C817F4016487CA
:101BB00075878687978760E070E080E090E02089F5
:101BC0003189428953890E94C817F401608B718B57
:101BD000828B938B60E070E080E090E0248935890F
:101BE000468957890E94C817F401648B758B868BD0
:101BF000978BF401F18EE08EC401B301A20196012E
:101C00008501CC88DD88EE88FF880E948B0A0E94BF
:101C1000BE08F40124A535A546A557A5621B730B84
:101C2000840B950B60A371A382A393A3CF91DF9143
:101C30001F910F91FF90EF90DF90CF90BF90AF90EA
:101C40009F908F907F906F905F904F900895FC01D0
:101C500087E392E091838083428353836483758317
:101C600020E030E040E85FE32683378340875187F8
:101C700080E090E0A0E0B0E082879387A487B587FA
:101C800086879787A08BB18B228B338B448B558BA8
:101C90000895FC0187E392E09183808308954F9239
:101CA0005F926F927F928F929F92AF92BF92CF92EC
:101CB000DF92EF92FF920F931F93DF93CF9300D0A9
:101CC0000F92CDB7DEB78C01CB01BA01D8015A967D
:101CD0002D913D914D915C915D970E94C8176B01CC
:101CE0007C016FE672E183E89AE3F801228533858F
:101CF000448555850E94C817D8011E962D913D91A7
:101D00004D915C9151970E94C8174B015C01D8011D
:101D100052968D919D910D90BC91A02D89839A83AF
:101D2000AB83BC832C013D0177FA709477F87094F3
:101D3000F801C68ED78EE0A2F1A2C701B6012281BA
:101D40003381448155810E940E1A9B01AC01D80158
:101D500056966D917D918D919C9159970E94C917CE
:101D6000F801668B778B808F918FC501B40122813A
:101D70003381448155810E940E1A9B01AC01D80128
:101D800016966D917D918D919C9119970E94C9171E
:101D9000F8016683778380879187C301B20122812E
:101DA0003381448155810E940E1A6B017C01D80158
:101DB0001A966D917D918D919C911D97A701960129
:101DC0000E94C917F80162877387848795876685A3
:101DD000778580899189A70196010E94C917D8014A
:101DE0001E966D937D938D939C93519712966D9152
:101DF0007D918D919C9115972AE037ED43EA5BE345
:101E00000E940E1A9B01AC0169817A818B819C81B1
:101E10000E94C917F801628B738B848B958B0F908E
:101E20000F900F900F90CF91DF911F910F91FF9026
:101E3000EF90DF90CF90BF90AF909F908F907F906A
:101E40006F905F904F9008954F925F926F927F9244
:101E50008F929F92AF92BF92CF92DF92EF92FF92BA
:101E60000F931F93DF93CF93CDB7DEB728970FB6AD
:101E7000F894DEBF0FBECDBF4C01CB01BA01F40117
:101E800026893789408D518D0E94C81769837A83CE
:101E90008B839C83F401A680B780C084D184C60163
:101EA000B50120E030E040E05FE30E94C9177B010C
:101EB0008C01C601B501A80197010E9493182B015E
:101EC0003C01F4016685778580899189A801970195
:101ED0000E9493186D837E838F839887F401E28438
:101EE000F38404851585C301B201A60195010E9402
:101EF0000E1A9B01AC01C601B5010E94C817F4017E
:101F00006683778380879187C301B201A801970117
:101F10000E940E1A9B01AC01C801B7010E94C817AC
:101F2000F40162877387848795876D817E818F81B5
:101F30009885A60195010E940E1A9B01AC01F4013F
:101F400066857785808991890E94C817F401668724
:101F50007787808B918B6D817E818F819885A80199
:101F600097010E940E1A9B01AC01F40162897389EA
:101F7000848995890E94C817F401628B738B848BC6
:101F8000958BC301B20129813A814B815C810E940A
:101F90000E1A9B01AC01F40166897789808D918DC1
:101FA0000E94C917F401668B778B808F918F6D81AA
:101FB0007E818F81988529813A814B815C810E9445
:101FC0000E1A9B01AC01F401628D738D848D958D89
:101FD0000E94C917F401628F738F848F958F2896A2
:101FE0000FB6F894DEBF0FBECDBFCF91DF911F912A
:101FF0000F91FF90EF90DF90CF90BF90AF909F90A8
:102000008F907F906F905F904F900895FC0126898C
:102010003789408D518DB901CA010895FC0187E3CC
:1020200092E091838083CF010E9473080895089500
:102030008AE060E00E94DD148BE060E00E94DD1425
:1020400082E060E070E00E944A1388E060E00E9455
:10205000DD1489E060E00E94DD1483E060E070E060
:102060000E944A130895EF92FF920F931F938B01E2
:102070007A018AE060E00E94DD148BE061E00E945A
:10208000DD1482E0B8010E944A1388E060E00E94FB
:10209000DD1489E061E00E94DD1483E0B7010E9455
:1020A0004A131F910F91FF90EF900895EF92FF92C6
:1020B0000F931F938B017A018AE061E00E94DD1487
:1020C0008BE060E00E94DD1482E0B8010E944A13B8
:1020D00088E061E00E94DD1489E060E00E94DD1488
:1020E00083E0B7010E944A131F910F91FF90EF9078
:1020F00008958AE061E00E942A148BE061E00E946A
:102100002A1482E061E00E942A1488E061E00E94C3
:102110002A1489E061E00E942A1483E061E00E94B1
:102120002A140895AF92BF92CF92DF92EF92FF925E
:102130000F931F93CF93DF935C016A017B018C01A6
:10214000C0E0D0E0F8018081882371F0CE0154E036
:10215000880F991F5A95E1F78C0F9D1F8A0D9B1DC3
:10216000B701A6010E94131521960F5E1F4FCA30BA
:10217000D10541F7DF91CF911F910F91FF90EF9023
:10218000DF90CF90BF90AF9008950F931F938C0175
:102190000E94BE08AB01BC01C8010E9492101F91B1
:1021A0000F910895FF920F931F93CF93DF93DC015C
:1021B000E9019801FC01FF248081882341F0F39418
:1021C00071968AE0F816C1F7FF24FA9422C08F2D89
:1021D000992787FD90958C01E4E0000F111FEA9587
:1021E000E1F7080F191F0A0F1B1F81E0F801808318
:1021F000418352836383748336832583D287C18767
:102200000E94BE08F8016387748785879687108AC5
:1022100017868F2DDF91CF911F910F91FF90089519
:102220000F931F930FEF1FEF0E94D2101F910F917A
:1022300008950F931F93CF93DF93EC0100E010E01C
:10224000CE01800F911F0E9410150F5E1F4F0A3A9A
:102250001105B1F7DF91CF911F910F91089581E0A2
:1022600080936D0460934A0410926B0410926C0486
:1022700008952091490430E080914804281B3109D9
:10228000C90108954091480480914904481718F005
:102290002FEF3FEF0AC0E42FF0E0E85DFB4F8081B5
:1022A000282F30E04F5F40934804C9010895E09122
:1022B000480480914904E81718F0EFEFFFEF06C0DB
:1022C000F0E0E85DFB4F8081E82FF0E0CF0108955A
:1022D0000895109271041092700488EE93E0A0E0CB
:1022E000B0E08093720490937304A0937404B0934D
:1022F00075048FE392E090936F0480936E040895C9
:10230000CF92DF92EF92FF920F931F93CF93DF93C1
:102310007C016B018A0180916D048823A1F0C0E0EB
:10232000D0E00DC0D701ED91FC91D601AC0FBD1FDF
:102330000190F081E02DC7016C9119952196C0178D
:10234000D10780F304C0CB01642F0E94FA15C801A5
:10235000DF91CF911F910F91FF90EF90DF90CF9081
:102360000895DF93CF930F92CDB7DEB7FC01698359
:1023700080916D048823C9F080916C04803238F01C
:1023800081E090E09383828320E030E015C080916B
:102390006B04E82FF0E0E55BFB4F998190838F5F42
:1023A00080936B0480936C0405C0CE01019661E0BC
:1023B0000E94FA1521E030E0C9010F90CF91DF9122
:1023C00008950F93062F80914A046BE474E04091C6
:1023D0006C0421E00E94A51510926B0410926C040D
:1023E00010926D040F91089561E00E94E11108952B
:1023F000413208F040E2862F68E274E00E945C15EA
:102400001092480480934904089521E00E94F81135
:102410000895109248041092490410926B0410928F
:102420006C040E94AA1708950F931F93CF93DF9314
:10243000BC018230910510F462E070E0E091EA04A2
:10244000F091EB0440E050E0A0E0B0E024C08081D7
:10245000918186179707D0F08617970771F48281CC
:102460009381109729F013969C938E9312972CC00A
:102470009093EB048093EA0427C04115510519F0AD
:102480008417950718F48D01AC01EF01DF018281FB
:1024900093819C01F9013097D1F641155105F9F06E
:1024A000CA01861B970B8430910580F48A819B8139
:1024B0000115110521F0F8019383828304C09093E4
:1024C000EB048093EA04FE01329645C0FE01E80F5A
:1024D000F91F619371930297998388833CC080911F
:1024E000E8049091E904892B41F480911F029091B6
:1024F00020029093E9048093E804409121025091D6
:1025000022024115510541F44DB75EB780911D027D
:1025100090911E02481B590B2091E8043091E90468
:1025200024173507B0F4CA01821B930B861797074F
:1025300080F0AB014E5F5F4F8417950750F0420F5C
:10254000531F5093E9044093E804F9016193719398
:1025500002C0E0E0F0E0CF01DF91CF911F910F9139
:102560000895CF93DF939C01009709F48FC0EC018D
:1025700022971B821A826091EA047091EB04611524
:10258000710581F488819981820F931F2091E8045D
:102590003091E9042817390739F5D093E904C0933D
:1025A000E80474C0DB0140E050E0AC17BD0708F15F
:1025B000BB83AA83FE0121913191E20FF31FAE1775
:1025C000BF0779F48D919C911197280F391F2E5FC9
:1025D0003F4F3983288312968D919C9113979B834B
:1025E0008A834115510571F4D093EB04C093EA043A
:1025F0004DC012968D919C911397AD01009711F0EB
:10260000DC01D3CFDA011396DC93CE931297FA0153
:1026100021913191E20FF31FCE17DF0769F4888112
:102620009981280F391F2E5F3F4FFA013183208394
:102630008A819B8193838283E0E0F0E0DB01129644
:102640008D919C911397009719F0BC01FD01F6CF75
:10265000AB014E5F5F4FDB018D919C91840F951F05
:102660002091E8043091E9042817390779F430976C
:1026700029F41092EB041092EA0402C01382128231
:10268000425050405093E9044093E804DF91CF91C9
:10269000089508951F93CF93DF93182FEB0161E006
:1026A0000E942A14209709F4CAC0CF3FD10509F42B
:1026B000C9C0E12FF0E0E551FE4F8491893009F463
:1026C00066C08A30B0F48430F1F1853040F4823055
:1026D00059F1833070F5813009F0AEC020C08730E9
:1026E00009F443C0883008F048C0863009F0A4C01F
:1026F00034C08D3009F478C08E3038F48B3009F452
:102700005AC08C3008F066C04CC0803109F480C0DB
:10271000813109F487C08F3009F08EC06FC084B555
:10272000806884BDC7BD92C084B5806284BDC8BDC9
:102730008DC080918000806880938000D093890054
:10274000C093880083C08091800080628093800065
:10275000D0938B00C0938A0079C08091B0008068CC
:102760008093B000C093B30071C08091B0008062CC
:102770008093B000C093B40069C0809190008068DD
:1027800080939000D0939900C09398005FC080918F
:102790009000806280939000D0939B00C0939A0039
:1027A00055C080919000886080939000D0939D00E8
:1027B000C0939C004BC08091A00080688093A000D3
:1027C0008091A0008F7B8093A000D093A900C0933C
:1027D000A8003CC08091A00080628093A000D093AC
:1027E000AB00C093AA0032C08091A00088608093A3
:1027F000A000D093AD00C093AC0028C08091200110
:10280000806880932001D0932901C09328011EC0C5
:1028100080912001806280932001D0932B01C0938E
:102820002A0114C080912001886080932001D093F8
:102830002D01C0932C010AC0C038D1051CF4812F92
:1028400060E002C0812F61E00E94DD14DF91CF9132
:102850001F910895CF93DF93482F50E0CA018B5505
:102860009E4FFC013491415A5E4FFA0184918823B6
:1028700069F190E0880F991FFC01EF5EFE4FA59172
:10288000B491FC01E55DFE4FC591D491662351F4EE
:102890002FB7F8948C91932F909589238C938881EE
:1028A00089230BC0623061F42FB7F8948C91932F79
:1028B000909589238C938881832B88832FBF06C0B2
:1028C0009FB7F8948C91832B8C939FBFDF91CF910E
:1028D0000895893009F449C08A30A0F4843051F158
:1028E000853040F4823079F1833000F5813009F091
:1028F00063C026C0873079F1883098F5863009F0BA
:102900005BC025C08D3009F442C08E3028F48B3076
:10291000B1F18C30C0F52DC0803109F442C0813155
:1029200009F445C08F3009F047C037C0809180005E
:102930008F7703C0809180008F7D80938000089501
:1029400084B58F7702C084B58F7D84BD0895809152
:10295000B0008F7703C08091B0008F7D8093B0006E
:102960000895809190008F7707C0809190008F7DAF
:1029700003C080919000877F80939000089580919C
:10298000A0008F7707C08091A0008F7D03C0809149
:10299000A000877F8093A0000895809120018F7709
:1029A00003C0809120018F7D809320010895809144
:1029B0002001877F809320010895FF920F931F933A
:1029C000F62E482F50E0CA0185519E4FFC012491FC
:1029D000CA018B559E4FFC011491415A5E4FFA017A
:1029E00004910023C9F0222319F0822F0E94691458
:1029F000E02FF0E0EE0FFF1FE55DFE4FA591B491D3
:102A00009FB7F894FF2021F48C911095812302C088
:102A10008C91812B8C939FBF1F910F91FF900895F4
:102A2000FC0110820895EF92FF920F931F93CF93B2
:102A3000DF93EC017A018B018B859C85AD85BE858A
:102A40009A01AB01281B390B4A0B5B0B89819A81D8
:102A5000AB81BC81281739074A075B07E0F0888102
:102A6000813019F0823071F404C0E985FA85199536
:102A700009C060E08885882309F461E068878F8158
:102A80000E94DD14EB86FC860D871E878F85988952
:102A90000196988B8F872D813E8137FD06C08F85EB
:102AA0009889821793070CF01882DF91CF911F91BC
:102AB0000F91FF90EF900895382F413210F040E0D1
:102AC00042C080917A048823E1F791E090937A04E0
:102AD00020937C048FEF8093E7041092A20441506E
:102AE0004093A3044F5F90937B0480917B04330F4A
:102AF000832B80937B0480917D04813041F410927C
:102B00007D0480917B048093BB0085EC01C085EE41
:102B10008093BC0080917A048130E1F38091A2041B
:102B2000841710F44091A20420E030E00AC0FB01B9
:102B3000E20FF31FD901AE57BB4F8C9180832F5FFB
:102B40003F4F2417A0F3842F08950F931F93582FFE
:102B5000122F413210F081E04AC080917A0488231C
:102B6000E1F782E080937A0400937C048FEF8093F6
:102B7000E7041092A2044093A304A2E8B4E0FB018E
:102B800002C081918D938E2F861B8417D0F31092F3
:102B90007B0480917B04550F852B80937B0480916F
:102BA0007D04813041F410927D0480917B048093F8
:102BB000BB0085EC01C085EE8093BC00112321F0A1
:102BC00080917A048230E1F38091E7048F3F11F421
:102BD00080E00DC08091E704803211F482E007C0EC
:102BE0008091E704803311F084E001C083E01F91FD
:102BF0000F910895482F613210F081E0089580917F
:102C00007A04843011F082E008956093C504A4EA48
:102C1000B4E0842F9C01F90102C081918D938E2F25
:102C2000841B8617D0F380E008951F920F920FB691
:102C30000F920BB60F9211242F933F934F935F93F4
:102C40006F937F938F939F93AF93BF93EF93FF9374
:102C50008091B90090E0887F90708036910509F4EA
:102C6000F2C081369105CCF58832910509F47BC01C
:102C700089329105B4F48031910509F46FC0813136
:102C800091053CF4009709F447C1089709F04FC13A
:102C900065C08831910509F466C0809709F047C185
:102CA00082C08034910509F4A4C08134910544F4B4
:102CB0008033910509F482C0C89709F038C189C0F2
:102CC0008035910509F489C08835910509F496C0CD
:102CD0008834910509F02BC1AEC08839910509F4FB
:102CE00013C189399105ECF48837910509F4ABC01B
:102CF000893791054CF48836910509F4A4C08037D2
:102D0000910509F014C19FC08838910509F4FCC0F1
:102D10008039910509F49DC08038910509F007C1FB
:102D200098C0803B910509F4C6C0813B91054CF4E5
:102D3000803A910509F49FC0883A910509F0F7C0DF
:102D4000BAC0803C910509F4E3C0883C910509F4C0
:102D5000DFC0883B910509F0EAC0C2C080917B04C6
:102D60008093BB00CFC09091A2048091A3049817D8
:102D700068F49091A204E92FF0E0EE57FB4F8081B8
:102D80008093BB009F5F9093A204BCC080917C04A1
:102D9000882309F44BC085ED8093BC008091BC0072
:102DA00084FDFCCFC2C080E28093E70485ED809370
:102DB000BC008091BC0084FDFCCFB7C080E3809351
:102DC000E70485ED8093BC008091BC0084FDFCCFBE
:102DD000ACC088E38093E7049BC08091A2049091EB
:102DE000BB00E82FF0E0EE57FB4F90838F5F80939E
:102DF000A2049091A2048091A30482C08091A204B5
:102E00009091BB00E82FF0E0EE57FB4F90838F5F6F
:102E10008093A20480917C04882341F085ED809307
:102E2000BC008091BC0084FDFCCF7FC081E080931A
:102E30007D0484EA6EC085ED8093BC008091BC0067
:102E400084FDFCCF72C083E080937A041092E60484
:102E500059C08091E604803208F056C08091E604A3
:102E60009091BB00E82FF0E0EA53FB4F90838F5F17
:102E70008093E60447C08091E604803230F4E0910C
:102E8000E604F0E0EA53FB4F108285ED8093BC002E
:102E90008091BC0084FDFCCF10927A046091E6041E
:102EA000E0918004F091810486EC94E070E0199543
:102EB0001092E6042DC084E080937A041092C4043A
:102EC0001092C504E0917E04F0917F0419958091E1
:102ED000C504882329F481E08093C5041092A404DA
:102EE0009091C404E92FF0E0EC55FB4F8081809372
:102EF000BB009F5F9093C4049091C4048091C5046B
:102F0000981710F485EC01C085E88093BC000FC0D1
:102F100085EC8093BC0009C01092E70485ED809396
:102F2000BC008091BC0084FDFCCF10927A04FF911C
:102F3000EF91BF91AF919F918F917F916F915F9131
:102F40004F913F912F910F900BBE0F900FBE0F909E
:102F50001F90189510927A0481E080937C0410925F
:102F60007D0484E161E00E94DD1485E161E00E945E
:102F7000DD14E9EBF0E080818E7F808380818D7F9E
:102F8000808388E48093B80085E48093BC00089532
:102F90005058BB27AA270ED0FCC1EDD130F0F2D19A
:102FA00020F031F49F3F11F41EF4BDC10EF4E09502
:102FB000E7FBB3C1E92FFED180F3BA1762077307AD
:102FC0008407950718F071F49EF516C20EF4E0958B
:102FD0000B2EBA2FA02D0B01B90190010C01CA01D3
:102FE000A0011124FF27591B99F0593F50F4503E7E
:102FF00068F11A16F040A22F232F342F4427585F70
:10300000F3CF469537952795A795F0405395C9F787
:103010007EF41F16BA0B620B730B840BBAF091503F
:10302000A1F0FF0FBB1F661F771F881FC2F70EC0DE
:10303000BA0F621F731F841F48F4879577956795B1
:10304000B795F7959E3F08F0B3CF9395880F08F09A
:103050009927EE0F9795879508958DD158F080E8C0
:1030600091E009F49EEF8ED128F040E851E059F448
:103070005EEF09C058C1C0C1E92FE0789BD168F369
:10308000092E052AC1F3261737074807590738F0D4
:103090000E2E07F8E02569F0E025E0640AC0EF6332
:1030A00007F8009407FADB01B9019D01DC01CA01B0
:1030B000AD01EF9347D06DD10AD05F91552331F028
:1030C0002BED3FE049E450FD49EC63CF0895DF93D9
:1030D000DD27B92FBF7740E85FE3161617064807CC
:1030E0005B0710F4D92F93D19F938F937F936F93A6
:1030F000F8D1E4EEF0E01AD14CD12F913F914F91ED
:103100005F9198D1DD2349F09058A2EA2AED3FE083
:1031100049EC5FE3D0785D274DDFDF913AC1D9D02C
:1031200008F481E008950CD034C12CD140F023D1B3
:1031300030F021F45F3F19F0F0C051115EC1F3C0CF
:1031400039D198F39923C9F35523B1F3951B550B46
:10315000BB27AA2762177307840738F09F5F5F4F6A
:10316000220F331F441FAA1FA9F333D00E2E3AF0AB
:10317000E0E830D091505040E695001CCAF729D0C5
:10318000FE2F27D0660F771F881FBB1F2617370714
:103190004807AB07B0E809F0BB0B802DBF01FF2744
:1031A00093585F4F2AF09E3F510568F0B6C025C185
:1031B0005F3FECF3983EDCF3869577956795B7957E
:1031C000F7959F5FC9F7880F911D9695879597F999
:1031D0000895E1E0660F771F881FBB1F6217730712
:1031E0008407BA0720F0621B730B840BBA0BEE1F27
:1031F00088F7E095089504D06894B111FEC0089551
:10320000E1D088F09F5790F0B92F9927B751A0F0DF
:10321000D1F0660F771F881F991F1AF0BA95C9F76A
:1032200012C0B13081F0E8D0B1E00895E5C0672F59
:10323000782F8827B85F39F0B93FCCF3869577951A
:103240006795B395D9F73EF4909580957095619503
:103250007F4F8F4F9F4F0895E89409C097FB3EF42E
:1032600090958095709561957F4F8F4F9F4F9923D3
:10327000A9F0F92F96E9BB279395F6958795779551
:103280006795B795F111F8CFFAF4BB0F11F460FF11
:103290001BC06F5F7F4F8F4F9F4F16C0882311F069
:1032A00096E911C0772321F09EE8872F762F05C07D
:1032B000662371F096E8862F70E060E02AF09A9518
:1032C000660F771F881FDAF7880F9695879597F90D
:1032D0000895990F0008550FAA0BE0E8FEEF1616A7
:1032E0001706E807F907C0F012161306E407F507FA
:1032F00098F0621B730B840B950B39F40A2661F06E
:10330000232B242B252B21F408950A2609F4A14010
:10331000A6958FEF811D811D089597F99F6780E81D
:1033200070E060E008959FEF80EC0895DF93CF9305
:103330001F930F93FF92EF92DF927B018C016894B1
:1033400005C0DA2EEF0176D0FE01E894A591259113
:10335000359145915591AEF3EF012CDEFE019701B9
:10336000A801DA9479F7DF90EF90FF900F911F9109
:10337000CF91DF91089500240A94161617061806B7
:103380000906089500240A94121613061406050669
:103390000895092E0394000C11F4882352F0BB0FFA
:1033A00040F4BF2B11F460FF04C06F5F7F4F8F4F5D
:1033B0009F4F089557FD9058440F551F59F05F3F98
:1033C00071F04795880F97FB991F61F09F3F79F047
:1033D00087950895121613061406551FF2CF4695C9
:1033E000F1DF08C0161617061806991FF1CF86954B
:1033F0007105610508940895E894BB27662777272F
:10340000CB0197F9089565DF08F48FEF08959B01CC
:10341000AC0160E070E080E89FE385CE0BD0B9CFCF
:10342000AADF28F0AFDF18F0952309F076CF7BCF25
:103430001124E3CFBFDFA0F3959FD1F3950F50E0A8
:10344000551F629FF001729FBB27F00DB11D639F56
:10345000AA27F00DB11DAA1F649F6627B00DA11DFC
:10346000661F829F2227B00DA11D621F739FB00DA2
:10347000A11D621F839FA00D611D221F749F332712
:10348000A00D611D231F849F600D211D822F762FAB
:103490006A2F11249F5750408AF0E1F088234AF0A8
:1034A000EE0FFF1FBB1F661F771F881F91505040F4
:1034B000A9F79E3F510570F030CF9FCF5F3FECF3EF
:1034C000983EDCF3869577956795B795F795E795E0
:1034D0009F5FC1F7FE2B880F911D9695879597F9F1
:1034E00008959B01AC019ACFF4DE880B990B0895E7
:1034F000629FD001739FF001829FE00DF11D649FD8
:10350000E00DF11D929FF00D839FF00D749FF00D63
:10351000659FF00D9927729FB00DE11DF91F639F04
:10352000B00DE11DF91FBD01CF0111240895A1E2E5
:103530001A2EAA1BBB1BFD010DC0AA1FBB1FEE1F2D
:10354000FF1FA217B307E407F50720F0A21BB30B78
:10355000E40BF50B661F771F881F991F1A9469F7F4
:1035600060957095809590959B01AC01BD01CF0150
:103570000895EE0FFF1F0590F491E02D199412E0CD
:10358000C8E3D2E004C0FE010E94BB1A2296CA33EF
:08359000D107C9F7F894FFCF41
:103598006E616E00696E66006F7666002E00000030
:1035A8004842000020416800002041E8038000EC08
:1035B8000400000000000013053D06B604D204C252
:1035C80004F00400000000490E0E1000000000B1D5
:0C35D800118011391142115711681100C7
:00000001FF
