:100000000C9473000C94A0000C94A0000C94A0001D
:100010000C94A0000C94A0000C94A0000C94A000E0
:100020000C94A0000C94A0000C94A0000C94A000D0
:100030000C94A0000C94A0000C94A0000C94A000C0
:100040000C94A0000C94A0000C94A0000C94A000B0
:100050000C94A0000C94A0000C94A0000C94150328
:100060000C94A0000C942B020C94B2020C94A000EF
:100070000C94A0000C94A0000C94A0000C94A00080
:100080000C94A0000C94A0000C94A0000C94A00070
:100090000C94A0000C94A0000C94A0000C94A00060
:1000A0000C94A0000C94A0000C94A0000C94A00050
:1000B0000C94A0000C94A0000C94A0000C94A00040
:1000C0000C94A0000C94A0000C94A0000C94A00030
:1000D0000C94A0000C94A0000C94A0000C94A00020
:1000E0000C94A000650211241FBECFEFD1E2DEBF49
:1000F000CDBF00E00CBF12E0A0E0B2E0E0E4F8E029
:1001000000E00BBF02C007900D92A431B107D9F7F0
:100110001BBE12E0A4E1B2E001C01D92AC3BB107EE
:10012000E1F710E0C6EED0E004C02297FE010E9485
:100130001A04C43ED107C9F70E9406030C941E049A
:100140000C94000081E00E94BF0386E192E040E051
:1001500052EC61E070E026E00E94F1000895809189
:1001600000020E94C203BC0175956795759567955D
:10017000709315026093140286E192E00E94B2012E
:100180000895DC015C968C915C97FD01E80FF11DF0
:10019000E35AFF4F20815C968C915C9790E001962A
:1001A0008F7390705C968C935C975696ED91FC9152
:1001B000579720835096ED91FC91519780818064F0
:1001C00080835B969C915B975C968C915C9798176B
:1001D00039F45296ED91FC91539780818F7D808305
:1001E0000895DF92EF92FF920F931F93CF93DF93C7
:1001F000EC017A018B01D22EE889F98982E08083B3
:10020000403081EE580780E0680780E07807A1F071
:1002100060E079E08DE390E0A80197010E94F60389
:10022000215030404040504056954795379527958E
:1002300080E12030380798F0E889F989108260E879
:1002400074E88EE190E0A80197010E94F603215026
:100250003040404050405695479537952795EC855E
:10026000FD853083EE85FF852083188EEC89FD891E
:10027000D082EA89FB89808180618083EA89FB8959
:10028000808188608083EA89FB898081806880839F
:10029000EA89FB8980818F7D8083DF91CF911F91D7
:1002A0000F91FF90EF90DF900895FC01218D828DDA
:1002B00030E0205C3F4F281B31092F733070C9019B
:1002C0000895FC01918D828D981719F42FEF3FEF5F
:1002D00006C0828DE80FF11D858D282F30E0C90101
:1002E0000895DC0159969C9159975A968C915A978A
:1002F000981719F42FEF3FEF10C05A968C915A9728
:10030000FD01E80FF11D958D5A968C915A978F5FDC
:100310008F735A968C93292F30E0C9010895CF939B
:10032000DF93EC01888D882361F419C08C9185FFDF
:100330000AC0E889F989808185FF05C0CE010E9445
:10034000C100AA89BB898C9185FD05C0E889F9891E
:10035000808186FD04C00FB607FEE8CFF4CFDF91A1
:10036000CF9108950F931F93CF93DF93EC01062F46
:100370009B8D8C8D981791F5E889F989808185FF8F
:100380002DC0EE89FF896083E889F98980818064C6
:1003900080831DC00FB607FC08C0E889F9898081F9
:1003A00085FF03C0CE010E94C1008C8D181791F308
:1003B0008B8DFE01E80FF11DE35AFF4F00831B8F69
:1003C000EA89FB8980818062808381E0888F81E077
:1003D00090E0DF91CF911F910F9108951B8D1F5FCA
:1003E0001F73E3CF88EA92E0892B51F080E090E020
:1003F000892B31F00E94A802882311F00E9400008E
:1004000080E090E0892B51F080E090E0892B31F082
:100410000E940000882311F00E94000080E090E01C
:10042000892B51F080E090E0892B31F00E94000090
:10043000882311F00E94000080E090E0892B51F0A9
:1004400080E090E0892B31F00E940000882311F0B9
:100450000E94000008951F920F920FB60F920BB6E4
:100460000F9211242F938F939F93EF93FF93E0911B
:100470002602F0912702808182FD16C0E0912C02B5
:10048000F0912D02208190912F029F5F9F738091A8
:100490003002981771F0E0912F02F0E0EA5EFD4F14
:1004A000258F90932F0205C0E0912C02F0912D0230
:1004B000E081FF91EF919F918F912F910F900BBE53
:1004C0000F900FBE0F901F90189510921902109266
:1004D000180288EE93E0A0E0B0E080931A029093B7
:1004E0001B02A0931C02B0931D0287E092E0909340
:1004F00017028093160285EC90E09093230280937C
:10050000220284EC90E0909325028093240280ECF8
:1005100090E0909327028093260281EC90E09093E4
:1005200029028093280282EC90E090932B02809322
:100530002A0286EC90E090932D0280932C02109278
:100540002F0210923002109231021092320208955E
:1005500086E192E00E94550120E0892B09F021E01C
:10056000822F08951F920F920FB60F920BB60F9223
:1005700011242F933F934F935F936F937F938F93A8
:100580009F93AF93BF93EF93FF9386E192E00E9416
:10059000C100FF91EF91BF91AF919F918F917F919A
:1005A0006F915F914F913F912F910F900BBE0F90E4
:1005B0000FBE0F901F901895CF92DF92EF92FF928F
:1005C0000F931F93CF93DF937C016B018A01C0E0EF
:1005D000D0E00FC0D6016D916D01D701ED91FC9176
:1005E0000190F081E02DC7011995C80FD91F015066
:1005F00010400115110571F7CE01DF91CF911F91C8
:100600000F91FF90EF90DF90CF900895CF93DF93FD
:100610000E945D030E94A200C2EFD1E00E94AF00E1
:100620002097E1F30E94F201F9CF1F920F920FB6CB
:100630000F9211242F933F938F939F93AF93BF9368
:100640008091B7029091B802A091B902B091BA021C
:100650003091BB020196A11DB11D232F2D5F2D37B7
:1006600020F02D570196A11DB11D2093BB02809350
:10067000B7029093B802A093B902B093BA028091E6
:10068000B3029091B402A091B502B091B602019666
:10069000A11DB11D8093B3029093B402A093B50243
:1006A000B093B602BF91AF919F918F913F912F91DF
:1006B0000F900FBE0F901F901895789484B58260AC
:1006C00084BD84B5816084BD85B5826085BD85B5F6
:1006D000816085BDEEE6F0E0808181608083E1E8A5
:1006E000F0E01082808182608083808181608083DD
:1006F000E0E8F0E0808181608083E1EBF0E08081E0
:1007000084608083E0EBF0E0808181608083E1E9B8
:10071000F0E0808182608083808181608083E0E975
:10072000F0E0808181608083E1EAF0E08081826096
:100730008083808181608083E0EAF0E08081816055
:100740008083E1E2F1E0808182608083808181604A
:100750008083E0E2F1E0808181608083EAE7F0E07D
:1007600080818460808380818260808380818160D9
:1007700080838081806880831092C1000895809377
:1007800002020895382F863308F0365320917B00FB
:10079000832F86958695869590E08170907043E0D2
:1007A000880F991F4A95E1F7277F282B20937B001C
:1007B0003770809102028295880F880F807C832B8E
:1007C00080937C0080917A00806480937A0080918D
:1007D0007A0086FDFCCF2091780040917900942F1B
:1007E00080E030E0282B392BC9010895A1E21A2EB0
:1007F000AA1BBB1BFD010DC0AA1FBB1FEE1FFF1FC5
:10080000A217B307E407F50720F0A21BB30BE40B14
:10081000F50B661F771F881F991F1A9469F760955B
:100820007095809590959B01AC01BD01CF01089515
:10083000EE0FFF1F0590F491E02D1994F894FFCF6F
:1008400003000100000000B201DC025501710161EA
:04085000018F010013
:00000001FF
