S01B000042616C616E63696E67526F626F742056322E302E737265637E
S11300000C94FC000C9419010C9419010C94190122
S11300100C9419010C9419010C9419010C941901F4
S11300200C9419010C9419010C9419010C941901E4
S11300300C9419010C9495230C94C8230C94190165
S11300400C9437230C9419010C9419010C94190184
S11300500C941901084AD73B3BCE016E84BCBFFD0A
S1130060C12F3D6C74319ABD56833DDA3D00C77F84
S113007011BED9E4BB4C3E916BAAAABE000000801D
S11300803F05A84CCDB2D44EB93836A9020C50B9AC
S1130090918688083CA6AAAA2ABE000000803F06D2
S11300A064EC1B3C04BC163E3BE5B93CC93C37C27E
S11300B09E5A3D660498083EEA69AAAA3E000000DA
S11300C0803F4E414E494E495459494E46CDCCCCC1
S11300D03D0AD7233C17B7D13877CC2B329595E618
S11300E0241FB14F0A000020410000C84200401CF8
S11300F04620BCBE4CCA1B0E5AAEC59D7400407A45
S113010010F35A00A0724E18090010A5D4E800009C
S1130110E87648170000E40B54020000CA9A3B003A
S11301200000E1F505000080969800000040420FB1
S1130130000000A08601000000102700000000E875
S113014003000000006400000000000A000000003A
S1130150000100000000002C76D888DC674F0823DB
S1130160DFC1DFAE59E1B1B796E5E3E453C63AE641
S113017051997696E8E6C28426EB898C9B62ED4021
S11301807C6FFCEFBC9C9F40F2BAA56FA5F4900570
S11301905A2AF75C936B6CF9676DC11BFCE0E40DA4
S11301A047FEF520E6B500D0ED902E030094357798
S11301B0050080841E080000204E0A000000C80CC0
S11301C0333333330F986E12831141EF8D21148929
S11301D03BE65516CFFEE6DB18D1844B381BF77C83
S11301E01D901DA4BBE424203284725E228100C9C8
S11301F0F124ECA1E53D270011241FBECFE5D8E092
S1130200DEBFCDBF13E0A0E6B0E0EEEAFAE502C03F
S113021005900D92A032B107D9F724E0A0E2B3E033
S113022001C01D92A834B207E1F70E9455140C9442
S1130230552D0C940000CF93C82F80ED0E945724B5
S11302408C2F0E947E2481ED0E9475240E948B24B1
S1130250C82F0E9478248C2FCF910895CF93DF93D9
S1130260D82FC62F80ED0E9457248D2F0E947E2404
S11302708C2F0E947E240E947824DF91CF910895D0
S1130280CF93DF93C82F83E48C0F0E941B01D82FD8
S113029084E48C0F0E941B016D2F70E0762F66277B
S11302A0680F711D882777FD8095982F0E94FB2584
S11302B0DF91CF910895CF93DF93C82F8BE38C0FF9
S11302C00E941B01D82F8CE38C0F0E941B012D2F41
S11302D030E0322F2227A901480F511DCA01DF91B6
S11302E0CF9108952F923F924F925F926F927F9297
S11302F08F929F92AF92BF92CF92DF92EF92FF9232
S11303000F931F93CF93DF93CDB7DEB768970FB6E4
S1130310F894DEBF0FBECDBF1C018B015A01DB0177
S113032014968D919D910D90BC91A02D89839A83F3
S1130330AB83BC8325E33AEF4EE85CE3F5016081CF
S11303407181828193810E94AB276B017C010E94A1
S11303500E286D837E838F8398879B01AC0169810E
S11303607A818B819C810E94AB27698B7A8B8B8BE2
S11303709C8B25E33AEF4EE85CE3D50114966D912E
S11303807D918D919C9117970E94AB272B013C0185
S11303900E9459284B015C01D80118968D919D91BA
S11303A00D90BC91A02D89879A87AB87BC87C70124
S11303B0B6010E945D256D877E878F87988B9B0190
S11303C0AC0169857A858B859C850E94AB276B017E
S11303D07C01C301B2010E945D252B013C01A501F2
S11303E0940169897A898B899C890E94AB27F801D9
S11303F020813181428153810E9493246D8B7E8BB5
S11304008F8B988FA7019601C501B4010E94AB2779
S11304109B01AC016D897E898F89988D0E949324FC
S1130420D1016D937D938D939C9313972D853E8578
S11304304F85588969817A818B819C810E94AB2781
S11304404B015C0129853A854B855C856D817E81F4
S11304508F8198850E94AB279B01AC01C501B40133
S11304600E949224F1016483758386839783A30198
S1130470920169897A898B899C890E9460254B0144
S11304805C01A3019201C701B6010E9460259B0192
S1130490AC01C501B4010E949324D10118966D9357
S11304A07D938D939C931B97C10168960FB6F89426
S11304B0DEBF0FBECDBFDF91CF911F910F91FF9093
S11304C0EF90DF90CF90BF90AF909F908F907F90F0
S11304D06F905F904F903F902F90089590E0880F19
S11304E0991F862B8330910534F4813091055CF497
S11304F0892B29F002C0039721F080E0089581E060
S1130500089581E008958FEF0895893C910518F4CA
S1130510FB01108208958039914018F081E0FB01BD
S1130520808308951F93CF93DF93EC019881898191
S1130530981749F01C816A8188810E946E02810F9C
S11305408C83888189839A818B81981761F01C81BF
S11305509A81888161E0911160E00E946E02810FAE
S11305608C838A818B83DF91CF911F9108958F9221
S11305709F92AF92BF92CF92DF92EF92FF920F932E
S11305801F93CF93DF93EA0168017901A9019801D0
S11305900E94AB274B015C01A701960160E070E06B
S11305A080E89FE30E9492242C813D814E815F81EB
S11305B00E94AB279B01AC01C501B4010E949324A6
S11305C0688379838A839B836C837D838E839F83F3
S11305D0DF91CF911F910F91FF90EF90DF90CF901B
S11305E0BF90AF909F908F9008954F925F926F92BB
S11305F07F928F929F92AF92BF92CF92DF92EF92AF
S1130600FF920F931F93CF93DF934B015C0169011A
S11306107A01E80168A579A5882777FD8095982F48
S11306200E94FB25A50194010E9493240E94C825E1
S113063079A768A76AA57BA5882777FD8095982F59
S11306400E94FB25A70196010E9493240E94C825BD
S11306507BA76AA728ED39EE47E95FE3C501B4013A
S11306600E94AB272B013C0128ED39EE47E95FE3FB
S1130670C701B6010E94AB276B017C019B01AC0151
S1130680C301B2010E94932420E030E040E05FE324
S11306900E94AB274B015C016CA77DA78EA79FA787
S11306A0A7019601C301B2010E9492242EEA33ED00
S11306B048E85EE30E94AB276C877D878E879F871F
S11306C008A119A12AA13BA1AE01405F5F4F0E947E
S11306D0B7020CA11DA12EA13FA1AE01485E5F4F40
S11306E0C501B4010E94B7022C853D854E855F8506
S11306F0688579858A859B850E9493246B017C019A
S1130700688779878A879B8725E33AEF4EE85CE31D
S11307100E94AB272B013C010E945D259B01AC018B
S1130720C501B4010E94AB279B01AC016C817D81A2
S11307308E819F810E9493246C837D838E839F830B
S1130740C301B2010E940E289B01AC01C501B40192
S11307500E94AB279B01AC01688179818A819B81CE
S11307600E949324688379838A839B8320E030E00A
S113077044E353ECC701B6010E94592588237CF455
S113078020E030E044EB53E4C701B6010E94932417
S1130790688779878A879B8788E691E01BC020E079
S11307A030E044E353E4C701B6010E940927181658
S11307B07CF420E030E044EB53E4C701B6010E942E
S11307C09224688779878A879B8788E99EEF02C08D
S11307D080E090E0DF91CF911F910F91FF90EF9017
S11307E0DF90CF90BF90AF909F908F907F906F904D
S11307F05F904F900895FC0110861186128613862F
S11308001082118212821382148215821682178238
S1130810108E118E128E138E148E158E168E178EC8
S113082008954F925F926F927F928F929F92AF92B0
S1130830BF92CF92DF92EF92FF92CF93DF93CDB727
S1130840DEB768970FB6F894DEBF0FBECDBF298719
S11308503A874B875C876D877E878F87988B8985DE
S11308609A85AB85BC858D8B9E8BAF8BB88F8D8520
S11308709E85AF85B889898B9A8BAB8BBC8B25E31E
S11308803AEF4EE85CE369A97AA98BA99CA90E9476
S1130890AB276B017C010E940E284B015C01C70150
S11308A0B6010E945D256B017C0129893A894B8937
S11308B05C890E94AB272DA53EA54FA558A90E948F
S11308C093242B013C012D893E894F89588DC50104
S11308D0B4010E94AB279B01AC01C301B2010E9489
S11308E09224762E672E582E492E29893A894B89CF
S11308F05C89C501B4010E94AB2729A53AA54BA583
S11309005CA50E9493244B015C012D893E894F898B
S1130910588DC701B6010E94AB279B01AC01C501EC
S1130920B4010E949324262F462F572F682F792F26
S113093049835A836B837C83872D962DA52DB42DF3
S11309408D839E83AF83B8873A814B815C81672D09
S11309507E818F81988568960FB6F894DEBF0FBEAE
S1130960CDBFDF91CF91FF90EF90DF90CF90BF90FC
S1130970AF909F908F907F906F905F904F9008956D
S1130980AF92BF92CF92DF92EF92FF920F931F9399
S1130990CF93DF93CDB7DEB760970FB6F894DEBF81
S11309A00FBECDBF29833A834B835C836D837E83E3
S11309B08F839887A986BA86CB86DC86ED86FE86E9
S11309C00F87188B2D813E814F8158856D857E85DB
S11309D08F8598890E9492246B017C01E894F7F832
S11309E029813A814B815C8169857A858B859C85D7
S11309F00E9492249F77A70196010E94062521EE6A
S1130A003EE245E652E40E94AB2729A13AA14BA15C
S1130A105CA10E94922425E33AEF4EE85CE30E9435
S1130A20AB270E945D252D8D3E8D4F8D58A10E94D0
S1130A30AB279F7760960FB6F894DEBF0FBECDBF8D
S1130A40DF91CF911F910F91FF90EF90DF90CF90A6
S1130A50BF90AF900895AF92BF92CF92DF92EF9282
S1130A60FF920F931F93CF93DF93CDB7DEB76097B9
S1130A700FB6F894DEBF0FBECDBF29833A834B83F4
S1130A805C836D837E838F839887A986BA86CB86A1
S1130A90DC86ED86FE860F87188B2D853E854F8577
S1130AA058896D817E818F8198850E9492246B0183
S1130AB07C0129853A854B855C8569817A818B81A6
S1130AC09C810E949224A70196010E94062521EE92
S1130AD03EE245E652E40E94AB2760960FB6F894D6
S1130AE0DEBF0FBECDBFDF91CF911F910F91FF905D
S1130AF0EF90DF90CF90BF90AF9008954F925F92A8
S1130B006F927F928F929F92AF92BF92CF92DF9219
S1130B10EF92FF922B013C0149015A010E94922459
S1130B206B017C0120E030E044E353E40E94092798
S1130B3018169CF020E030E0A901C701B6010E941C
S1130B40592588230CF520E030E044E353ECC70139
S1130B50B6010E9409271816BCF4A5019401C3012B
S1130B60B2010E94592588232CF120E030E044EBA7
S1130B7053E4C301B2010E949224A50194010E948E
S1130B8092246B017C0116C0A5019401C301B2013A
S1130B900E945925882374F420E030E044EB53E4A8
S1130BA0C301B2010E949324A50194010E949224DE
S1130BB06B017C01C701B601FF90EF90DF90CF90ED
S1130BC0BF90AF909F908F907F906F905F904F9069
S1130BD008954F925F926F927F928F929F92AF92FD
S1130BE0BF92CF92DF92EF92FF922B013C01490119
S1130BF05A010E9492246B017C0120E030E044E31E
S1130C0053E40E940927181644F520E030E047E831
S1130C1053E4C701B6010E94592588237CF420E0DF
S1130C2030E044E353E4C301B2010E949224A501DD
S1130C3094010E9492246B017C0186C020E030E084
S1130C4044EB53E4C301B2010E949224A501940130
S1130C500E9492246B017C0177C020E030E0A9015E
S1130C60C701B6010E945925882334F520E030E0FD
S1130C7044E353ECC701B6010E9409271816E4F4B3
S1130C8020E030E044EB52ECC701B6010E94092792
S1130C9088230CF059C0A3019201C501B4010E943C
S1130CA092249B01AC0160E070E084E393E40E9431
S1130CB092246B017C0148C0A5019401C301B201D7
S1130CC00E945925882344F520E030E047E853EC9E
S1130CD0C701B6010E94092718167CF420E030E011
S1130CE044E353E4C301B2010E949324A501940197
S1130CF00E9492246B017C0127C020E030E044EB89
S1130D0053E4C301B2010E949324A50194010E94FB
S1130D1092246B017C0118C020E030E044EB52E4E3
S1130D20C701B6010E945925181674F420E030E07A
S1130D3044E353E4C301B2010E949224A501940147
S1130D400E9492246B017C01C701B601FF90EF90D1
S1130D50DF90CF90BF90AF909F908F907F906F90D7
S1130D605F904F9008954F925F926F927F928F920F
S1130D709F92AF92BF92CF92DF92EF92FF920F9326
S1130D801F93CF93DF93CDB7DEB760970FB6F89478
S1130D90DEBF0FBECDBF29833A834B835C836D8353
S1130DA07E838F839887A986BA86CB86DC86ED8678
S1130DB0FE860F87188B682D70E080E090E00E941B
S1130DC0F9252B013C0129813A814B815C8169859C
S1130DD07A858B859C850E9492246B017C019B0102
S1130DE0AC01C301B2010E9409271816FCF4682D56
S1130DF070E0719561957109882777FD8095982F2A
S1130E000E94FB254B015C01A70196010E94592514
S1130E10882374F080E021C0A7019601C501B401C4
S1130E200E945925881F8827881F17C080E015C095
S1130E302D813E814F8158856D857E858F8598896A
S1130E400E9492246B017C019B01AC01C301B2019D
S1130E500E940927181604F380E060960FB6F894F0
S1130E60DEBF0FBECDBFDF91CF911F910F91FF90D9
S1130E70EF90DF90CF90BF90AF909F908F907F9036
S1130E806F905F904F9008952F923F924F925F9290
S1130E906F927F928F929F92AF92BF92CF92DF9286
S1130EA0EF92FF920F931F93CF93DF93CDB7DEB7EB
S1130EB062970FB6F894DEBF0FBECDBF1C01498701
S1130EC05A876B877C87C901B80129853A854B8588
S1130ED05C850E9492246D837E838F839887D101E1
S1130EE018968D909D90AD90BC901B9720E030E0BB
S1130EF0A901C501B4010E94592581110CC0F10159
S1130F00E65BFF4F10821182128213821D861E86B9
S1130F101F86188A98C0F10141A052A063A074A052
S1130F2020E030E0A901C301B2010E9459258823C1
S1130F3041F1A5019401C301B2010E9460252B0176
S1130F403C01DC01CB01B0588D879E87AF87B88BFD
S1130F509C01AD016D817E818F8198850E94592508
S1130F60882304F1A30192016D817E818F8198858C
S1130F700E940927181674F44D865E866F86788A57
S1130F8011C08D819E81AF81B8858D879E87AF8783
S1130F90B88B08C08D819E81AF81B8858D879E876F
S1130FA0AF87B88BF101E65BFF4F408051806280D0
S1130FB0738020E030E0A901C301B2010E945925E9
S1130FC088235CF420E030E0A9016D817E818F816B
S1130FD098850E9409271816A4F020E030E0A901A2
S1130FE06D817E818F8198850E94592588235CF5C7
S1130FF020E030E0A901C301B2010E9409271816BC
S113100014F5D101D2962D913D914D915C91D597D6
S11310106D817E818F8198859F770E94092718169C
S113102094F4F10181A5813071F422A533A544A57E
S113103055A56D817E818F8198850E94AB276D8730
S11310407E878F87988BD10195964D905D906D909A
S11310507C90989720E030E0A901C301B2010E947E
S11310605925882309F44EC0A5019401C301B20196
S11310700E946025A70196010E9460252B013C0176
S1131080F101E65BFF4F20813181428153816D85FF
S11310907E858F8598890E949324698B7A8B182F7B
S11310A0092FD301C201B05889839A83AB83BC83CF
S11310B09C01AD01812F902F0E94592588237CF03B
S11310C029893A89412F502FC301B2010E94592521
S11310D0882354F4242D352D162D072D07C029817E
S11310E03A811B810C8102C029893A89822F932F6E
S11310F0A12FB02FF101E65BFF4F80839183A28380
S1131100B38313C08101065B1F4F2D853E854F8538
S11311105889D8016D917D918D919C910E94932461
S1131120F8016083718382839383D1012D913D9172
S11311304D915C916D817E818F8198850E94AB2752
S11311402B013C01F10166AB77AB80AF91AF91010C
S1131150265B3F4FD9018D919D910D90BC91A02D9F
S113116089839A83AB83BC839C01AD01C501B4011F
S11311700E94AB27A70196010E94AB274B015C019B
S1131180F10162AF73AF84AF95AF808D882319F0FE
S1131190813021F145C08101025C1F4FF101EE5BFA
S11311A0FF4F20813181428153816D817E818F8106
S11311B098850E949224D10150962D913D914D9194
S11311C05C9153970E94AB27A70196010E9460256A
S11311D0F801608371838283938322C08101025C5E
S11311E01F4FF101EA5BFF4F20813181428153811E
S11311F069857A858B859C850E949224D1015096BD
S11312002D913D914D915C9153970E94AB27A7017D
S113121096010E946025F801608371838283938321
S1131220F101EE5BFF4F8D819E81AF81B885808394
S11312309183A283B383349689859A85AB85BC85D3
S113124080839183A283B383A5019401C301B20176
S11312500E949324F101FE962081318142815381C1
S11312600E949324862E972EE82EF92ED1015996AA
S1131270AC9059975A96BC905A975B967C905B9722
S11312805C966C905C975D965C905D975E964C90D6
S11312905E975F961C915F9790960C91252D342D47
S11312A0412F502F6A2D7B2D872D962D0E94592575
S11312B0882309F466C0252D342D412F502F682D25
S11312C0792D8E2D9F2D0E94092718163CF520E0BC
S11312D030E0A9016D817E818F8198850E94092764
S11312E01816C4F47101BAE4EB0EF11C2D853E8589
S11312F04F85588969817A818B819C810E949224CF
S1131300F7016083718382839383852C942CE12E6F
S1131310F02E04C0852C942CE12EF02E2A2D3B2D8A
S1131320472D562D682D792D8E2D9F2D0E945925E0
S113133088233CF520E030E0A9016D817E818F8116
S113134098850E9459258823C4F4FAE42F0E311C91
S11313502D853E854F855889D1016D917D918D9163
S11313609C910E949224F101608371838283938310
S11313708A2C9B2CE72CF62C04C08A2C9B2CE72C63
S1131380F62C682D792D8E2D9F2D62960FB6F8942C
S1131390DEBF0FBECDBFDF91CF911F910F91FF90A4
S11313A0EF90DF90CF90BF90AF909F908F907F9001
S11313B06F905F904F903F902F90089518161906E4
S11313C054F4AB9AAA988F3F910519F014F08FEF5B
S11313D090E083BD14C0AA9AAB989C01992324F48D
S11313E022273327281B390B33233CF02F3F3105A9
S11313F029F024F02FEF30E001C020E023BD1616C1
S1131400170654F4AD9AAE986F3F710519F014F0B5
S11314106FEF70E06CBF0895AE9AAD98CB0199233D
S113142024F488279927861B970B99233CF08F3F38
S1131430910529F024F08FEF90E001C080E08CBF8B
S1131440089584B38C6784BBAC9A8F9ABB9A089531
S1131450FC016F3229F58081823029F410922E0329
S11314601082118208958081811159C081E08083A6
S11314708181811102C0128208958181813031F409
S113148080912E03E80FF11D148608958181823026
S113149009F045C080912E03E80FF11D168A0895C6
S11314A06032D1F4818181110AC081E0818380910D
S11314B02E03E80FF11D128210922E0308958181EC
S11314C0813069F582E0818380912E03E80FF11D5C
S11314D0148610922E0308958181811109C0809190
S11314E02E03E80FF11D62838F5F80932E0308950E
S11314F08181813049F480912E03E80FF11D6487C6
S11315008F5F80932E0308958181823041F480910E
S11315102E03E80FF11D668B8F5F80932E030895D1
S11315200F931F93CF93DF93CDB7DEB72A970FB6F0
S1131530F894DEBF0FBECDBF8E010F5F1F4F22E0B8
S113154047E00E949F288981882369F010E00E9467
S113155020241F5FE1E0F0E0EC0FFD1FE10FF11D1F
S113156080818111F4CF2A960FB6F894DEBF0FBEA6
S1131570CDBFDF91CF911F910F9108951F93CF930A
S1131580DF93CDB7DEB72A970FB6F894DEBF0FBE50
S1131590CDBF4AE0BE016F5F7F4F0E94EB28898177
S11315A0882369F010E00E9420241F5FE1E0F0E04E
S11315B0EC0FFD1FE10FF11D80818111F4CF2A96FC
S11315C00FB6F894DEBF0FBECDBFDF91CF911F9150
S11315D008952F923F924F925F926F927F928F92D3
S11315E09F92AF92BF92CF92DF92EF92FF920F93AE
S11315F01F93CF93DF93CDB7DEB72D970FB6F89433
S1131600DEBF0FBECDBF4C0109831A832B833C83FD
S11316104D835E836F8378873701CD862D813E812C
S11316204F815885DC0114966D917D918D919C912B
S113163017970E9492246B017C0129813A814B8186
S11316405C81F40160817181828193810E94922482
S1131650A70196010E94162769877A878B879C8742
S1131660472F382F292F862F942FA32FB22FF30122
S113167080839183A283B383E4EDF0E0D401AC9042
S11316801196BC9011971296CC9012971396DC90F9
S113169013971496EC9014971596FC90159716963C
S11316A00C91169717961C912081318142815381A8
S11316B064817581868197810E942B056B017C0171
S11316C0F40120853185428553850E947E051B01E6
S11316D02C0120E030E048E453E4B985AA85FB8579
S11316E0EC856B2F7A2F8F2F9E2F0E9409271816B7
S11316F02CF481E0D30118968C9318C020E030E0DC
S113170040EF51E4B985AA85FB85EC856B2F7A2FD0
S11317108F2F9E2F0E94592588231CF4F3011086D5
S11317201FC0D30118968C918823D1F0BD85BB23AB
S113173031F0F301248235824682578254C0D401A9
S113174018962D913D914D915C911B97C701B6015F
S11317500E94E905F301648375838683978343C0FC
S1131760D4011B968C911B978F931A968C911A9780
S11317708F9319968C9119978F9318968C918F93B8
S1131780BC85BF93EB85EF93FA85FF9329852F934F
S1131790D401AC901196BC9011971296CC901297EC
S11317A01396DC9013971496EC9014971596FC906E
S11317B0159716960C91169717961C9129813A81C4
S11317C04B815C816D817E818F8198850E94C004EC
S11317D00FB6F894DEBF0FBECDBFD3016D937D93DA
S11317E08D939C93139720E030E044EB52E4C201C4
S11317F0B1010E945925882354F420E030E044EBE1
S113180052ECC201B1010E940927181654F0F301E9
S113181080819181A281B381B05880839183A28316
S1131820B3832D960FB6F894DEBF0FBECDBFDF9104
S1131830CF911F910F91FF90EF90DF90CF90BF90C9
S1131840AF909F908F907F906F905F904F903F905C
S11318502F90089520916200213069F118F0223010
S1131860F1F10895FC0111AA81E080936100809157
S1131870630090916400981710F081110AC02091C0
S11318806500821730F4809364008F5F8093630057
S11318900895891728F090916500891708F446C0C7
S11318A090916500992309F441C0809364008150AC
S11318B0809363000895309163002091650032178E
S11318C050F010926300211131C0FC0111AA81E093
S11318D08093610008953F5F3093630008952091E1
S11318E0630030916400321710F021110AC0409156
S11318F06500241730F4209364002F5F2093630065
S11319000895231720F030916500231778F0309163
S11319106500311106C0FC0111AA81E080936100C9
S11319200895209364002150209363000895109239
S1131930600010926300109265001092640010928F
S11319406A0010926B0010926C0010926D0010925D
S11319506E0010926F00109270001092710010923D
S11319602F0310923003109231031092320310921D
S11319703303109234031092350310923603089502
S11319802F923F924F925F926F927F928F929F928B
S1131990AF92BF92CF92DF92EF92FF920F931F9379
S11319A0CF93DF9300D000D0CDB7DEB729013A0141
S11319B0E982FA820B831C831A2D0B2DF98CEA8C95
S11319C03B8C2C8C0E9492244B015C01212F302FE4
S11319D04C2D5D2D6F2D7E2D832D922D0E949224F2
S11319E09B01AC01C501B4010E94AB274B015C0112
S11319F0A301920169817A818B819C810E94922446
S1131A009B01AC01C501B4010E946025212F302F38
S1131A104C2D5D2D0E949324862E972EA82EB92E30
S1131A20262F372F482F592F612F702F8C2D9D2D46
S1131A300E9409271816ACF0282D392D4A2D5B2D4C
S1131A406F2D7E2D832D922D0E94592588232CF4F1
S1131A501F2D0E2DC32CD22C04C0182D092DCA2CD9
S1131A60DB2C612F702F8C2D9D2D0F900F900F90DC
S1131A700F90DF91CF911F910F91FF90EF90DF9026
S1131A80CF90BF90AF909F908F907F906F905F901A
S1131A904F903F902F9008954F925F926F927F9254
S1131AA0AF92BF92CF92DF92EF92FF920F931F9368
S1131AB0CF93DF9300D000D0CDB7DEB78C012A01DD
S1131AC03B01DC0119968C911997811121C0149660
S1131AD08D919D910D90BC91A02D89839A83AB83A8
S1131AE0BC8320E030E046E952E4BC01CD010E9411
S1131AF05925882354F520E030E046E952EC698109
S1131B007A818B819C810E9409271816F4F424C0E1
S1131B10F801C480D580E680F78020E030E040E220
S1131B2051E4C701B6010E9459258823C4F520E079
S1131B3030E040E251ECC701B6010E9409271816B3
S1131B4074F5D80119961C922AC081E0F8018187A6
S1131B50412C512C320123C08FE38F9380E88F9363
S1131B601F921F92A12CB12C6501E12CF12C00E2F3
S1131B7011E420E030E040E752E469817A818B810E
S1131B809C810E94C00C0F900F900F900F909B01AE
S1131B90AC01C301B2010E94AB272B013C01C3017C
S1131BA0B2010F900F900F900F90DF91CF911F9182
S1131BB00F91FF90EF90DF90CF90BF90AF907F9008
S1131BC06F905F904F9008952F923F924F925F9243
S1131BD06F927F928F929F92AF92BF92CF92DF9239
S1131BE0EF92FF920F931F93CF93DF9300D000D017
S1131BF000D0CDB7DEB79E838D831B014A017901E6
S1131C006090C4007090C500C090C600D090C7001A
S1131C1020E030E040EF50EC662D772D8C2D9D2D8B
S1131C200E94592588238CF020E030E040EF50E4F6
S1131C30662D772D8C2D9D2D0E940927181654F49E
S1131C40612C712C30EF20E407C0612C712C30EF33
S1131C5020EC02C03C2D2D2D862D972DA32FB22FC5
S1131C608093C4009093C500A093C600B093C700AE
S1131C706090660070906700C0906800D090690022
S1131C8020E030E040EF50EC662D772D8C2D9D2D1B
S1131C900E94592588238CF020E030E040EF50E486
S1131CA0662D772D8C2D9D2D0E940927181654F42E
S1131CB0612C712C30EF20E407C0612C712C30EFC3
S1131CC020EC02C03C2D2D2D862D972DA32FB22F55
S1131CD08093660090936700A0936800B0936900B6
S1131CE0E2ECF0E080818B3008F08AE08083F4013C
S1131CF084819581A681B78180839183A283B383F4
S1131D0084899589A689B789808B918BA28BB38BA3
S1131D10F10186A597A5A0A9B1A982A793A7A4A715
S1131D20B5A7AD81BE8158964D905D906D907C9025
S1131D305B9720E030E040E250E4C301B2010E942E
S1131D40592588230CF05FC420E030E040E250ECD9
S1131D50C301B2010E94092718160CF054C457C4D9
S1131D608091F600813071F48091C3008F5F8431DB
S1131D7018F48093C30006C01092C3001092F500BB
S1131D801092F6001091F5008091F4008117E1F1B2
S1131D901092CC001092CD001092CE001092CF0081
S1131DA01092C4001092C5001092C6001092C70091
S1131DB0ED81FE8160857185828593850E94C825A9
S1131DC07093C9006093C80088E0ED81FE81A4EDA2
S1131DD0B0E001900D928A95E1F7ED81FE81808556
S1131DE09185A285B38580932A0390932B03A093B6
S1131DF02C03B0932D031093F400F701E65BFF4F1F
S1131E001082118212821382123009F4DAC130F482
S1131E10112359F0113009F4F3C02EC5133009F41D
S1131E2076C2143009F43EC327C5E4EDF0E0C12CBA
S1131E300F2EF0E2EF2EF3E0FF2EF02D0081118142
S1131E402281338144815581668177818D819E8190
S1131E500E94E90A409020035090210360902203DD
S1131E607090230320E030E048E452E4C301B2015F
S1131E700E9459258823B4F420E030E048E452EC71
S1131E80C301B2010E940927181664F4C5C320E0F7
S1131E9030E040EC5FEBC701B6010E940927181639
S1131EA00CF4F7C38091280381111AC0AD81BE815F
S1131EB018962D913D914D915C911B9760912A0349
S1131EC070912B0380912C0390912D030E947E0529
S1131ED06093240370932503809326039093270330
S1131EE0ED81FE81C084D184E284F384B090240324
S1131EF01091250390902603A090270320E030E062
S1131F0040E751EC6B2D712F892D9A2D0E94592594
S1131F1088238CF020E030E040E751E46B2D712FF2
S1131F20892D9A2D0E940927181654F4B12C10E01B
S1131F3090E781E407C0B12C10E090E781EC02C087
S1131F40992D8A2D2B2D312F492F582FC701B601DA
S1131F500E9493240E94C8257093C9006093C8000E
S1131F602091BE003091BF004091C0005091C1004B
S1131F7060912003709121038091220390912303A7
S1131F800E94AB27AB01BC0180E293E00E944C0DA0
S1131F90862E972EB82E192FC090BA00D090BB0071
S1131FA0E090BC00F090BD002601370177FA7094F0
S1131FB077F87094A30192010E94592588237CF03C
S1131FC0A7019601682D792D8B2D912F0E94092749
S1131FD018164CF48C2C9D2CBE2C1F2D04C0842C64
S1131FE0952CB62C172D482D592D6B2D712F409300
S1131FF0C4005093C5006093C6007093C7003CC4EE
S1132000C0902003D0902103E0902203F09023039A
S113201020E030E048E452E4C701B6010E945925AB
S113202088235CF420E030E048E452ECC701B601B8
S11320300E94092718160CF475C3AD81BE81189649
S11320404D905D906D907C901B976091C80070914D
S1132050C900882777FD8095982F0E94FB259B0156
S1132060AC01C301B2010E94922469837A838B83F9
S11320709C8320E030E040E051E40E94592588230D
S11320800CF055C320E030E040E051EC69817A81E6
S11320908B819C810E94092718160CF048C320E00C
S11320A030E048EC52E4C701B6010E945925882368
S11320B00CF07EC320E030E048EC52ECC701B601DE
S11320C00E94092718160CF073C33AC32DEC3CEC9C
S11320D04CE45EEBC701B6010E940927181634F5DB
S11320E079C380E090E0A0E8BFE3F10182A793A761
S11320F0A4A7B5A7F401EE5BFF4FC080D180E280B6
S1132100F38020E030E040E85FE3C701B6010E94BD
S1132110592588235CF420E030E040E85FEBC701F8
S1132120B6010E94092718160CF45EC3ED81FE81E6
S113213084A595A5A6A5B7A5BC01CD01905820916D
S1132140BE003091BF004091C0005091C1000E9478
S1132150AB27862E972EB82E192FC090BA00D09098
S1132160BB00E090BC00F090BD002601370177FA77
S1132170709477F87094A30192010E9459258823E2
S11321807CF0A7019601682D792D8B2D912F0E944B
S1132190092718164CF48C2C9D2CBE2C1F2D04C022
S11321A0842C952CB62C172D482D592D6B2D712F61
S11321B04093C4005093C5006093C6007093C70059
S11321C05BC34090E8005090E9006090EA00709092
S11321D0EB0020E030E0A901C301B2010E9409270D
S11321E088237CF020E030E0A9016091E400709144
S11321F0E5008091E6009091E7000E9459251816A9
S1132200C4F420E030E0A901C301B2010E945925C1
S11322101816B4F020E030E0A9016091E400709158
S1132220E5008091E6009091E7000E940927882349
S11322303CF0F701E65BFF4F108211821282138299
S11322408091E4009091E500A091E600B091E70050
S11322508093E8009093E900A093EA00B093EB0028
S11322604090CC005090CD006090CE007090CF0094
S113227020E030E0A901C301B2010E94592588235E
S113228071F0AD81BE8118966D917D918D919C9177
S11322901B970E94C8257093C9006093C800809161
S11322A0C4009091C500A091C600B091C700BC01C4
S11322B0CD019F772FE32F9320E82F931F921F9236
S11322C00F2EFDECAF2EFCECBF2EFCE4CF2EFFE373
S11322D0DF2EF02DE12CF12C00E210E420E030E0C0
S11322E040EB50E40E94C00C0F900F900F900F90A1
S11322F09B01AC01C301B2010E94AB276093CC00E7
S11323007093CD008093CE009093CF00B5C280919E
S11323106000882309F4C0C060906300712CF3014D
S1132320EE0FFF1FEE0FFF1FEE0FFF1FE659FF4FCB
S11323300F2EFEE18F2EF02DAD81BE81AC90119653
S1132340BC9011971296CC9012971396DC90139729
S11323501496EC9014971596FC90159716960C917C
S1132360169717961C912081318142815381648193
S11323707581868197810E94B306882329F084ECB5
S113238090E00E942A0C78C2F301EE0FFF1FEE0FBB
S1132390FF1FEE0FFF1FE659FF4FAD81BE81AC90CA
S11323A01196BC9011971296CC9012971396DC90CC
S11323B013971496EC9014971596FC90159716960F
S11323C00C91169717961C9120813181428153817B
S11323D064817581868197810E942B05ED81FE8140
S11323E0C084D184E284F384A70196010E947E050F
S11323F0862E972EB82E192F462F572F682F792FF8
S1132400409324035093250360932603709327037A
S113241020E030E040E751EC682D792D0E945925E9
S113242088238CF020E030E040E751E4682D792DDA
S11324308B2D912F0E940927181654F4812C912C6E
S1132440E0E711E406C0812C912CE0E711EC01C017
S1132450EB2DA7019601682D792D8E2F912F0E94C7
S113246093240E94C8257093C9006093C8004091CA
S1132470660050916700609168007091690080E285
S113248093E00E944C0D6093C4007093C500809348
S1132490C6009093C700F0C11092F50081E08093CC
S11324A06100EAC10F2EFEE18F2EF02DAD81BE81B9
S11324B0AC901196BC9011971296CC9012971396EB
S11324C0DC9013971496EC9014971596FC9015973E
S11324D016960C91169717961C9120912F03309104
S11324E03003409131035091320360913303709172
S11324F0340380913503909136030E94B3068823F8
S113250031F01092F50081E080936100B5C1ED8156
S1132510FE81A080B180C280D380E480F5800681F2
S1132520178120912F033091300340913103509152
S11325303203609133037091340380913503909199
S113254036030E942B05AD81BE811896CD90DD9097
S1132550ED90FC901B97A70196010E947E05862EA4
S1132560972EB82E192F462F572F682F792F409367
S1132570240350932503609326037093270320E0DC
S113258030E040E751EC682D792D0E9459258823CD
S11325908CF020E030E040E751E4682D792D8B2D5C
S11325A0912F0E940927181654F4812C912CE0E7EE
S11325B011E406C0812C912CE0E711EC01C0EB2D55
S11325C0A7019601682D792D8E2F912F0E949324B7
S11325D00E94C8257093C9006093C80040916600AA
S11325E050916700609168007091690080E293E007
S11325F00E944C0D6093C4007093C5008093C60084
S11326009093C70039C181E0F10181A7A9CB82E091
S1132610D10199968C93A4CBE89477F8F10181A920
S11326208F9380A98F9387A58F9386A58F930F2E61
S1132630A12CB12CF0E8CF2EFFE3DF2EF02DE12CFE
S1132640F12C08E412E420E030E040E451E4C3015A
S1132650B2010E94C00C0F900F900F900F90D10107
S11326609A966D937D938D939C939D97F401EE5B65
S1132670FF4FC080D180E280F38020E030E040EC66
S11326805FE3C701B6010E94592588230CF4FFCBF0
S113269009CCF401A488B588C688D78826E636E62E
S11326A046EE5FE3C601B5010E94AB279F938F936B
S11326B07F936F93E12CF12C870120E030E048E414
S11326C052E4C301B2010E94C00C0F900F900F900E
S11326D00F90D40150966D937D938D939C93539753
S11326E01496AD90BD90CD90DC901797A6019501FE
S11326F0C601B5010E9493249F938F937F936F9398
S113270020E030E048E452E4C301B2010E94C00C6E
S11327100F900F900F900F90F40160837183828368
S11327209383C0CB82E0D10199968C9386CCC3016C
S1132730B2010E94C8257093C9006093C800AFCC51
S113274026013701E89477F8F10181A98F9380A9D4
S11327508F9387A58F9386A58F930F2EA12CB12CD1
S1132760F0E8CF2EFFE3DF2EF02DE12CF12C08E46E
S113277012E420E030E040E451E4C301B2010E94DD
S1132780C00C0F900F900F900F906B017C0120E014
S113279030E040E85FE30E94592588230CF4A1CC83
S11327A0D1019A96CD92DD92ED92FC929D97A2CCA6
S11327B0ED81FE81C08CD18CE28CF38C2DEC3CEC51
S11327C04CE45EE3C701B6010E94592588230CF44A
S11327D07DCCACCC88E0ED81FE81A4EDB0E001902D
S11327E00D928A95E1F7A2CCD4015496AD90BD9098
S11327F0CD90DC90579720E030E040EC5FE3C601D9
S1132800B5010E94AB279F938F937F936F93E12C25
S1132810F12C870120E030E048E452E4C301B20126
S11328200E94C00C0F900F900F900F90F401608BDA
S1132830718B828B938BA480B580C680D780A601D0
S11328409501C601B5010E9493249F938F937F93B2
S11328506F9320E030E048E452E4C301B2010E94E7
S1132860C00C0F900F900F900F90D4016D937D9337
S11328708D939C9313975ACC26960FB6F894DEBF8B
S11328800FBECDBFDF91CF911F910F91FF90EF90BD
S1132890DF90CF90BF90AF909F908F907F906F907C
S11328A05F904F903F902F900895CF93DF93CDB7D3
S11328B0DEB7C05DD1400FB6F894DEBF0FBECDBF0A
S11328C019821A821B821C821D821E821F82188614
S11328D019861A861B861C861D861E861F86188AE4
S11328E0FE01719680E3DF011D928A95E9F780E08D
S11328F090E0A0E0BFE389AB9AABABABBCAB83E3A6
S113290093E3A3EBBEE38DAB9EABAFABB8AF259621
S11329101CAE1DAE1EAE1FAE259729961CAE1DAE75
S11329201EAE1FAE29972D961CAE1DAE1EAE1FAE59
S11329302D976D961CAE1DAE1EAE1FAE6D97A19663
S11329401CAE1DAE1EAE1FAEA197A5961CAE1DAE4D
S11329501EAE1FAEA5978BED99EFAEE7BFE3A99628
S11329608CAF9DAFAEAFBFAFA997E85AFF4F0F2E04
S1132970FEE4EF2EF02DDF012E2D1D922A95E9F7AE
S113298080E090E0A0E0B0E480839183A283B383ED
S113299084839583A683B78385E89BEEA1EDBFE38B
S11329A080879187A287B38784879587A687B7870F
S11329B080E090E0A0EAB1EC818F928FA38FB48F76
S11329C080E090E0A0EAB1E4858F968FA78FB0A352
S11329D083E393E3A3EDB0E481A392A3A3A3B4A3FD
S11329E080E090E0A0EEB0E482A793A7A4A7B5A7E7
S11329F086A797A7A0ABB1AB80E090E0A0ECBFE3C3
S1132A0082AB93ABA4ABB5ABE25BFF4FDF012E2DE2
S1132A101D922A95E9F780E090E0A0E2B2E4808379
S1132A209183A283B38384839583A683B78380E051
S1132A3090E0A0E9B0EC808B918BA28BB38B848B5C
S1132A40958BA68BB78BFF24F394F08E40E050E077
S1132A506FE773EC418F528F638F748F0F2E812C2D
S1132A60912CFFE7AF2EF3E4BF2EF02D858E968ECA
S1132A70A78EB0A2E25BFF4FDF012E2D1D922A9597
S1132A80E9F700E010E020EA30E4008311832283B8
S1132A90338304831583268337830DEC1CEC2CECE1
S1132AA03DE3008B118B228B338B048B158B268B90
S1132AB0378B00E010E027E033EC018F128F238F77
S1132AC0348F00E010E027E033E4058F168F278F62
S1132AD030A3E25BFF4FDF011D92EA94E9F700E0C7
S1132AE010E020EF32E400831183228333830483D4
S1132AF015832683378300E010E020E231E4008769
S1132B0011872287338704871587268737870AE941
S1132B1019E929E93FE3008B118B228B338B048B5A
S1132B20158B268B378B418F528F638F748F858ED5
S1132B30968EA78EB0A2F1A6BD9AC59884B7806878
S1132B4084BF84B7806884BF1FBC8EB582608EBD8D
S1132B5085B5896685BD83B7896683BF13BC1CBEF2
S1132B608CE090E00E94EF2386B1866086B93E9A9D
S1132B70339A379A7894369A0E943524BD9AC59828
S1132B8060E08BE60E942E0168E08BE10E942E013A
S1132B900E94210ABFEFE3EDF0E3B150E040F040C2
S1132BA0E1F700C0000080E00E945B015C0182E06C
S1132BB00E945B017C0184E00E945B018C01B701EF
S1132BC06A547140882777FD8095982F0E94FB25D1
S1132BD06B017C0160EA76EF601B710B882777FD3F
S1132BE08095982F0E94FB252B013C01A70196019B
S1132BF00E94062521EE3EE245E652E40E94AB2700
S1132C006D966CAF7DAF8EAF9FAF6D97A3019201B0
S1132C10C701B6010E9416276B017C01B501665BF2
S1132C207340882777FD8095982F0E94FB25A70184
S1132C3096010E94062521EE3EE245E652E40E94FA
S1132C40AB27A1966CAF7DAF8EAF9FAFA19722E06B
S1132C50C155DE4F2883CF5AD140212CCB53DE4FB0
S1132C601882C55CD140C653DE4F1882CA5CD1407D
S1132C70C553DE4F1882CB5CD140C953DE4F188256
S1132C80C75CD140C853DE4F1882C85CD140C753DB
S1132C90DE4F1882C95CD140C453DE4F1882CC5C2D
S1132CA0D140CA53DE4F1882C65CD140C254DE4FB5
S1132CB01882CE5BD140C154DE4F1882CF5BD14025
S1132CC0C054DE4F1882C05CD140CF53DE4F18820F
S1132CD0C15CD140CE53DE4F1882C25CD140CD538B
S1132CE0DE4F1882C35CD140CC53DE4F1882C45CE3
S1132CF0D140C354DE4F1882CD5BD1408DEC9CECA7
S1132D00ACE4BEE3C353DE4F88839983AA83BB83B9
S1132D10CD5CD1408CB59DB58031974208F4EAC4AE
S1132D206CB57DB580E090E00E94F92520E034E2A6
S1132D3044E759E40E946025C755DE4F68837983D0
S1132D408A839B83C95AD1401DBC1CBC8FB7F8949D
S1132D50A0E4B3E0EC91C454DE4FE883CC5BD140F3
S1132D60EBE3F3E030801C9210828FBF80E00E947E
S1132D705B013C0182E00E945B017C0184E00E94D3
S1132D805B018C0180E00E94400120E030E04FE8CC
S1132D9053E40E94932420E030E040E752E40E9490
S1132DA06025C755DE4F288139814A815B81C95A24
S1132DB0D1400E94AB2725966CAF7DAF8EAF9FAFFD
S1132DC0259784E00E94400120E030E040E153E494
S1132DD00E94932420E030E040E752E40E94602502
S1132DE0C755DE4F288139814A815B81C95AD14058
S1132DF00E94AB2729966CAF7DAF8EAF9FAF29970A
S1132E0082E00E94400120E030E047E553E40E9464
S1132E109324905820E030E040E752E40E9460257B
S1132E20C755DE4F288139814A815B81C95AD14017
S1132E300E94AB272D966CAF7DAF8EAF9FAF2D97C1
S1132E40B7016A547140882777FD8095982F0E94B6
S1132E50FB256B017C0160EA76EF601B710B882710
S1132E6077FD8095982F0E94FB254B015C01A701FB
S1132E7096010E94062521EE3EE245E652E40E94B8
S1132E80AB27CC54DE4F688379838A839B83C45BEE
S1132E90D140A5019401C701B6010E9416276B0118
S1132EA07C01B301665B7340882777FD8095982F7A
S1132EB00E94FB25A70196010E94062521EE3EE211
S1132EC045E652E40E94AB27C854DE4F68837983F9
S1132ED08A839B83C85BD140AE01475A5F4FBE01D2
S1132EE06F5B7F4FCE01835B9F4F0E94720161969F
S1132EF08CAD9DADAEADBFAD6197C055DE4F88833F
S1132F009983AA83BB83C05BD140A996CCACDDACCA
S1132F10EEACFFACA997A701960160E070E080E8F1
S1132F209FE30E9492244B015C01A1962CAD3DAD20
S1132F304EAD5FADA19765966CAD7DAD8EAD9FAD89
S1132F4065970E9493249B01AC01C701B6010E94BE
S1132F50AB272B013C01A5019401C854DE4F6881C5
S1132F6079818A819B81C85BD1400E94AB279B01F8
S1132F70AC01C301B2010E949324A1966CAF7DAF52
S1132F808EAF9FAFA1976D962CAD3DAD4EAD5FADAD
S1132F906D97C055DE4F688179818A819B81C05BC2
S1132FA0D1400E9493249B01AC01C701B6010E9449
S1132FB0AB276B017C01A5019401CC54DE4F6881E1
S1132FC079818A819B81C45BD1400E94AB279B019C
S1132FD0AC01C701B6010E9493246D966CAF7DAF1E
S1132FE08EAF9FAF6D970F2EF8ECCF2EF0E0DF2E53
S1132FF0F02DD601ED90FC90632D772767FD709539
S1133000872F972F0E94FB254B015C01C454DE4F90
S1133010B881CC5BD1406B2F772767FD7095872FE4
S1133020972F0E94FB252B013C018E010F5E1F4F41
S1133030A50194010E94F5028E0D9F1DF601918356
S113304080832220F1F0A196CCACDDACEEACFFACD9
S1133050A19720E030E048E452E4C701B6010E94A1
S11330605925882314F00C94222320E030E048E40E
S113307052ECC701B6010E940927181614F00C94EB
S11330802223C155DE4FF881CF5AD140F11133C00C
S1133090AC98C555DF4F188219821A821B82CB5A0D
S11330A0D040CD54DF4F188219821A821B82C35B31
S11330B0D040C750DF4F188219821A821B82C95F21
S11330C0D040CF5FDE4F188219821A821B82C15012
S11330D0D140C95BDE4F188219821A821B82C75401
S11330E0D140C15BDE4F188219821A821B82CF54F1
S11330F0D140212C02C021101CC0A196CCACDDAC67
S1133100EEACFFACA19720E030E040E050E4C70112
S1133110B6010E945925882364F420E030E040E0A1
S113312050ECC701B6010E940927181614F40C9438
S11331302D23C155DE4F2881CF5AD140213009F0CB
S11331404BC007C0C155DE4F3881CF5AD140313012
S113315031F482E0C155DE4F8883CF5AD140CE018D
S113316041960E94FB031092CC001092CD00109265
S1133170CE001092CF001092C4001092C50010929D
S1133180C6001092C7001092DC001092DD0010926D
S1133190DE001092DF001092E0001092E100109225
S11331A0E2001092E300698D7A8D8B8D9C8D0E94D4
S11331B0C8257093C9006093C80088E0FE01719629
S11331C0A4EDB0E001900D928A95E1F7AC9A332416
S11331D033942224239404C0322C222009F407C1FE
S11331E0C155DE4F9881CF5AD140992309F4FFC0CD
S11331F09E012D5A3E4FAE0149545F4FBE0167599F
S11332007F4FCE0141960E94E40D0091EC00109195
S1133210ED002091EE003091EF006091C4007091B8
S1133220C5008091C6009091C7004CED50E00E940B
S1133230B7020091F0001091F1002091F20030915A
S1133240F300ACECB0E06D917D918D919C9144EED6
S113325050E00E94B7020091DC001091DD00209143
S1133260DE003091DF0049A55AA56BA57CA5C755A2
S1133270DE4FC880D980EA80FB80C95AD140CE0194
S113328087599F4F0E9444078B019C01305800933B
S1133290D0001093D1002093D2003093D300A19694
S11332A04CAD5DAD6EAD7FADA197C755DE4FC88007
S11332B0D980EA80FB80C95AD140CE0189549F4FFE
S11332C00E944407C055DE4F688379838A839B83B9
S11332D0C05BD14020E030E0A901ECECF0E060817B
S11332E07181828193810E945925811120C060914E
S11332F0C8007091C900882777FD8095982F0E9497
S1133300FB258B019C01498D5A8D6B8D7C8DC75596
S1133310DE4FC880D980EA80FB80C95AD140CE01F3
S11333208B5F9E4F0E9444076B017C011BC0009180
S1133330E4001091E5002091E6003091E70049A1F6
S11333405AA16BA17CA1C755DE4FC880D980EA8001
S1133350FB80C95AD140CE018D5A9E4F0E9444072A
S11333606B017C01A7019601C055DE4F688179810C
S11333708A819B81C05BD1400E949324C353DE4F5A
S1133380088119812A813B81CD5CD140AE014F5F18
S11333905F4F0E94B702A7019601C055DE4F6881B6
S11333A079818A819B81C05BD1400E949224C3535E
S11333B0DE4F088119812A813B81CD5CD140AE0169
S11333C0475F5F4F0E94B70269857A858B859C852C
S11333D00E94C8256B017C0169817A818B819C8163
S11333E00E94C825DC01CB01B6010E94DE09C3544A
S11333F0DE4FF881CD5BD140FF2309F465C1CD5385
S1133400DE4F2881C35CD140222371F0A1966CADBC
S11334107DAD8EAD9FADA1970E94C825CB010E94C2
S1133420BE0A8CE20E942024CC53DE4F3881C45C57
S1133430D140332371F06D966CAD7DAD8EAD9FADF3
S11334406D970E94C825CB010E94BE0A8CE20E949F
S11334502024C254DE4F8881CE5BD140882381F082
S1133460C854DE4F688179818A819B81C85BD140D1
S11334700E94C825CB010E94BE0A8CE20E9420242F
S1133480C154DE4F9881CF5BD140992381F0CC5455
S1133490DE4F688179818A819B81C45BD1400E941F
S11334A0C825CB010E94BE0A8CE20E942024CE5380
S11334B0DE4FA881C25CD140AA2381F06091D00084
S11334C07091D1008091D2009091D3000E94C825C0
S11334D0CB010E94BE0A8CE20E942024CF53DE4F0F
S11334E0B881C15CD140BB2381F06091C40070916C
S11334F0C5008091C6009091C7000E94C825CB01E9
S11335000E94BE0A8CE20E942024C054DE4FE8814F
S1133510C05CD140EE2349F08091C8009091C9006D
S11335200E94BE0A8CE20E942024CA53DE4FF88116
S1133530C65CD140FF2361F0698D7A8D8B8D9C8DA3
S11335400E94C825CB010E94BE0A8CE20E9420245E
S1133550C453DE4F2881CC5CD1402223C1F0698959
S11335607A898B899C890E94C825CB010E94BE0A56
S11335708CE20E9420246D897E898F89988D0E9417
S1133580C825CB010E94BE0A8CE20E942024C753A6
S1133590DE4F3881C95CD140332349F069A57AA54F
S11335A08BA59CA50E94900A8CE20E942024C853FB
S11335B0DE4F8881C85CD140882371F089AD9AAD13
S11335C00E94BE0A8CE20E9420248BAD9CAD0E9416
S11335D0BE0A8CE20E942024C953DE4F9881C75C46
S11335E0D140992361F069817A818B819C810E9409
S11335F0C825CB010E94BE0A8CE20E942024C55338
S1133600DE4FA881CB5CD140AA2361F069817A8125
S11336108B819C810E94C825CB010E94BE0A8CE24A
S11336200E942024C653DE4FB881CA5CD140BB231C
S113363001F120E030E044E353E4C301B2010E940D
S11336406025C755DE4F288139814A815B81C95A7B
S1133650D1400E94602520E030E040E752E40E941F
S1133660AB270E94C825CB010E94BE0A8CE20E94AF
S11336702024CB53DE4FE881C55CD140EE2301F119
S113368020E030E044E353E4C501B4010E94602526
S1133690C755DE4F288139814A815B81C95AD1409F
S11336A00E94602520E030E040E752E40E94AB270E
S11336B00E94C825CB010E94BE0A8CE20E942024ED
S11336C08AE00E94202416C080916100813051F468
S11336D081E30E9420248AE00E94202482E08093D7
S11336E0610008C0311006C082E30E9420248AE0F1
S11336F00E9420240E940324C355DE4F9883CD5A90
S1133700D140C255DE4F1882CE5AD140C355DE4F48
S113371028813981CD5AD140232B29F4682F87EF92
S113372090E00E94280A8091F700813009F0F2CAE3
S113373067E171E089EF90E00E94E228892B99F417
S113374083E091E00E94C02820E030E040E251E4B0
S11337500E9460256093C4007093C5008093C600E6
S11337609093C7006AC76AE171E089EF90E00E9414
S1133770E228892BC9F483E091E00E94C02820E06C
S113378030E040E351E40E94AB2720E030E048EC15
S113379052E40E9460256093CC007093CD00809326
S11337A0CE009093CF0049C76DE171E089EF90E0BE
S11337B00E94E228892B49F483E091E00E94C42806
S11337C09093C9008093C80038C761E271E089EF23
S11337D090E00E94E228892B51F483E091E00E945A
S11337E0C428C155DE4F8883CF5AD14026C767E22B
S11337F071E089EF90E00E94E228892B69F483E06C
S113380091E00E94C0286093BA007093BB0080933B
S1133810BC009093BD0011C76BE271E089EF90E0AA
S11338200E94E228892B39F483E091E00E94C428A5
S11338308093F50002C76EE271E089EF90E00E9488
S1133840E228892B51F48091F600811103C081E0B4
S11338508093F6001092C300F0C661E371E089EF33
S113386090E00E94E228892B61F584E08093F500C2
S113387083E091E00E94C428BC01882777FD8095ED
S1133880982F0E94FB2560932F037093300380933D
S11338903103909332038DE091E00E94C428BC016F
S11338A0882777FD8095982F0E94FB25609333032A
S11338B07093340380933503909336031092610020
S11338C0BCC669E371E089EF90E00E94E228892B8D
S11338D009F077C084E08093F50083E091E00E94D2
S11338E0C428BC01882777FD8095982F0E94FB256A
S11338F0CF55DE4F688379838A839B83C15AD14035
S11339008DE091E00E94C428BC01882777FD809552
S1133910982F0E94FB25CB55DE4F688379838A83D9
S11339209B83C55AD1408DB79EB7C0970FB6F89404
S11339309EBF0FBE8DBFADB7BEB7119680E3FE012B
S1133940719601900D928A95E1F7CF55DE4F28814B
S1133950C15AD140CE55DE4F3881C25AD140CD55DF
S1133960DE4F4881C35AD140CC55DE4F5881C45AEA
S1133970D140CB55DE4F6881C55AD140CA55DE4F80
S11339807881C65AD140C955DE4F8881C75AD14083
S1133990C855DE4F9881C85AD1400E941104EFE205
S11339A0F3E0208331834283538364837583868366
S11339B09783109261000FB6F894DEBF0FBECDBF9F
S11339C03CC661E471E089EF90E00E94E228892B13
S11339D039F483E091E00E94C428809362002DC6EC
S11339E065E471E089EF90E00E94E228892B59F5A3
S11339F083E091E00E94C02820E030E040E251E4FE
S1133A000E9460259F77609366007093670080939F
S1133A1068009093690020E030E0A9010E945925D4
S1133A20811105C00E94970C1092F50006C6809182
S1133A30650090916300891708F0FFC580936300C7
S1133A4080936400FAC569E471E089EF90E00E9414
S1133A50E228892BD9F58091F500833009F4EDC56E
S1133A6080916500893008F0E8C5409163004A30D0
S1133A7008F0E3C581E080936000242F30E0F90171
S1133A80EE0FFF1FEE0FFF1FEE0FFF1FE05AFF4F59
S1133A9089899A89AB89BC8982879387A487B587EA
S1133AA08D899E89AF89B88D86879787A08BB18BC6
S1133AB01092610040936500C90101968A30910516
S1133AC014F089E090E080936300B7C56FE471E07F
S1133AD089EF90E00E94E228892B51F483E091E081
S1133AE00E94C428C354DE4F8883CD5BD140A5C552
S1133AF063E571E089EF90E00E94E228892B51F49C
S1133B0083E091E00E94C428CD53DE4F8883C35CD8
S1133B10D14093C56DE571E089EF90E00E94E22801
S1133B20892B51F483E091E00E94C428CC53DE4FEA
S1133B308883C45CD14081C567E671E089EF90E079
S1133B400E94E228892B51F483E091E00E94C4286A
S1133B50C254DE4F8883CE5BD1406FC560E771E00D
S1133B6089EF90E00E94E228892B51F483E091E0F0
S1133B700E94C428C154DE4F8883CF5BD1405DC509
S1133B8069E771E089EF90E00E94E228892B51F403
S1133B9083E091E00E94C428CE53DE4F8883C25C48
S1133BA0D1404BC562E871E089EF90E00E94E228C1
S1133BB0892B51F483E091E00E94C428CF53DE4F57
S1133BC08883C15CD14039C56BE871E089EF90E02E
S1133BD00E94E228892B51F483E091E00E94C428DA
S1133BE0C054DE4F8883C05CD14027C564E971E0CE
S1133BF089EF90E00E94E228892B51F483E091E060
S1133C000E94C428CA53DE4F8883C65CD14015C5C0
S1133C106CE971E089EF90E00E94E228892B51F46D
S1133C2083E091E00E94C428C453DE4F8883CC5CB7
S1133C30D14003C564EA71E089EF90E00E94E22874
S1133C40892B51F483E091E00E94C428C753DE4FCE
S1133C508883C95CD140F1C46CEA71E089EF90E0DB
S1133C600E94E228892B51F483E091E00E94C42849
S1133C70C853DE4F8883C85CD140DFC464EB71E075
S1133C8089EF90E00E94E228892B51F483E091E0CF
S1133C900E94C428C953DE4F8883C75CD140CDC479
S1133CA06EEB71E089EF90E00E94E228892B51F4D9
S1133CB083E091E00E94C428C553DE4F8883CB5C27
S1133CC0D140BBC468EC71E089EF90E00E94E22827
S1133CD0892B51F483E091E00E94C428C653DE4F3F
S1133CE08883CA5CD140A9C462ED71E089EF90E099
S1133CF00E94E228892B51F483E091E00E94C428B9
S1133D00CB53DE4F8883C55CD14097C46CED71E022
S1133D1089EF90E00E94E228892B59F483E091E036
S1133D200E94C028A9966CAF7DAF8EAF9FAFA997B4
S1133D3084C462EE71E089EF90E00E94E228892B4E
S1133D4059F483E091E00E94C028E1966CAF7DAF06
S1133D508EAF9FAFE19771C46AEE71E089EF90E096
S1133D600E94E228892B59F483E091E00E94C02844
S1133D70E9966CAF7DAF8EAF9FAFE9975EC462EFFB
S1133D8071E089EF90E00E94E228892B69F483E0D6
S1133D9091E00E94C028CE57DF4F688379838A83DD
S1133DA09B83C258D04049C46CEF71E089EF90E026
S1133DB00E94E228892B69F483E091E00E94C028E4
S1133DC0CA57DF4F688379838A839B83C658D04060
S1133DD034C466E072E089EF90E00E94E228892B07
S1133DE069F483E091E00E94C028C657DF4F6883DE
S1133DF079838A839B83CA58D0401FC46EE072E0E3
S1133E0089EF90E00E94E228892B69F483E091E035
S1133E100E94C028C257DF4F688379838A839B83BB
S1133E20CE58D0400AC468E172E089EF90E00E9465
S1133E30E228892B51F483E091E00E94C428CE56F5
S1133E40DF4F8883C259D040F8C360E272E089EF43
S1133E5090E00E94E228892B69F483E091E00E94BB
S1133E60C028C956DF4F688379838A839B83C759E7
S1133E70D040E3C368E272E089EF90E00E94E22858
S1133E80892B69F483E091E00E94C028C554DF4F78
S1133E90688379838A839B83CB5BD040CEC36FE2F4
S1133EA072E089EF90E00E94E228892B69F483E0B4
S1133EB091E00E94C028CD53DF4F688379838A83C1
S1133EC09B83C35CD040B9C366E372E089EF90E0A2
S1133ED00E94E228892B69F483E091E00E94C028C3
S1133EE0C553DF4F688379838A839B83CB5CD0403F
S1133EF0A4C36DE372E089EF90E00E94E228892B6D
S1133F00A1F483E091E00E94C428BC01882777FDD6
S1133F108095982F0E94FB25C053DF4F68837983D7
S1133F208A839B83C05DD04088C366E472E089EFD6
S1133F3090E00E94E228892BA1F483E091E00E94A2
S1133F40C428BC01882777FD8095982F0E94FB2503
S1133F50CC52DF4F688379838A839B83C45DD040CE
S1133F606CC36FE472E089EF90E00E94E228892B31
S1133F7069F483E091E00E94C028C852DF4F68834F
S1133F8079838A839B83C85DD04057C366E572E01A
S1133F9089EF90E00E94E228892B69F483E091E0A4
S1133FA00E94C028C452DF4F688379838A839B832D
S1133FB0CC5DD04042C36FE572E089EF90E00E948F
S1133FC0E228892B51F483E091E00E94C428C05276
S1133FD0DF4F8883C05ED04030C366E672E089EF6D
S1133FE090E00E94E228892B69F483E091E00E942A
S1133FF0C028CB51DF4F688379838A839B83C55E56
S1134000D0401BC36DE672E089EF90E00E94E22885
S1134010892B69F483E091E00E94C028C75FDE4FDA
S1134020688379838A839B83C950D14006C364E73C
S113403072E089EF90E00E94E228892B69F483E022
S113404091E00E94C028CF5EDE4F688379838A8323
S11340509B83C151D140F1C26BE772E089EF90E0DC
S11340600E94E228892B69F483E091E00E94C02831
S1134070C75EDE4F688379838A839B83C951D140AD
S1134080DCC262E872E089EF90E00E94E228892BAA
S1134090A1F483E091E00E94C428BC01882777FD45
S11340A08095982F0E94FB25C25EDE4F688379833A
S11340B08A839B83CE51D140C0C26BE872E089EF02
S11340C090E00E94E228892BA1F483E091E00E9411
S11340D0C428BC01882777FD8095982F0E94FB2572
S11340E0CE5DDE4F688379838A839B83C252D1403D
S11340F0A4C264E972E089EF90E00E94E228892B6F
S113410069F483E091E00E94C028CA5DDE4F6883B1
S113411079838A839B83C652D1408FC26BE972E054
S113412089EF90E00E94E228892B69F483E091E012
S11341300E94C028C65DDE4F688379838A839B838F
S1134140CA52D1407AC264EA72E089EF90E00E94D8
S1134150E228892B51F483E091E00E94C428C25DD7
S1134160DE4F8883CE52D14068C26BEA72E089EF99
S113417090E00E94E228892B69F483E091E00E9498
S1134180C028CD5CDE4F688379838A839B83C353C5
S1134190D14053C262EB72E089EF90E00E94E228C2
S11341A0892B69F483E091E00E94C028C95ADE4F4C
S11341B0688379838A839B83C755D1403EC269EB68
S11341C072E089EF90E00E94E228892B69F483E091
S11341D091E00E94C028C15ADE4F688379838A83A4
S11341E09B83CF55D14029C260EC72E089EF90E007
S11341F00E94E228892B69F483E091E00E94C028A0
S1134200C959DE4F688379838A839B83C756D1401B
S113421014C267EC72E089EF90E00E94E228892BD7
S1134220A1F483E091E00E94C428BC01882777FDB3
S11342308095982F0E94FB25C459DE4F68837983AB
S11342408A839B83CC56D140F8C160ED72E089EF3C
S113425090E00E94E228892BA1F483E091E00E947F
S1134260C428BC01882777FD8095982F0E94FB25E0
S1134270C059DE4F688379838A839B83C057D140BA
S1134280DCC169ED72E089EF90E00E94E228892B9D
S113429069F483E091E00E94C028CC58DE4F688323
S11342A079838A839B83C457D140C7C160EE72E08F
S11342B089EF90E00E94E228892B69F483E091E081
S11342C00E94C028C858DE4F688379838A839B8301
S11342D0C857D140B2C169EE72E089EF90E00E9404
S11342E0E228892B51F483E091E00E94C428C45849
S11342F0DE4F8883CC57D140A0C160EF72E089EFD4
S113430090E00E94E228892B69F483E091E00E9406
S1134310C028CF57DE4F688379838A839B83C15833
S1134320D1408BC167EF72E089EF90E00E94E228F0
S1134330892B69F483E091E00E94C0286093BE0059
S11343407093BF008093C0009093C10076C16EEF5C
S113435072E089EF90E00E94E228892B49F483E01F
S113436091E00E94C0286DAB7EAB8FAB98AF65C166
S113437065E073E089EF90E00E94E228892B49F41C
S113438083E091E00E94C02869AB7AAB8BAB9CAB15
S113439054C16BE073E089EF90E00E94E228892B1E
S11343A069F483E091E00E94C028C353DE4F688320
S11343B079838A839B83CD5CD1403FC163E173E001
S11343C089EF90E00E94E228892B69F483E091E070
S11343D00E94C0286093EC007093ED008093EE007F
S11343E09093EF002AC16AE173E089EF90E00E94A4
S11343F0E228892B09F021C183E091E00E94C428BE
S11344008093C200882309F418C1682F70E080E00B
S113441090E00E94F9252B013C010F2EFFE39F2E13
S1134420F02D9F926894882487F88F921F921F9290
S11344300F2EFDECAF2EFCECBF2EFCE4CF2EFFE3E1
S1134440DF2EF02DE12CF12C870120E030E040E25A
S113445051E40E94C00C0F900F900F900F909B019D
S1134460AC010E949324E1966CAF7DAF8EAF9FAFF9
S1134470E1979F928F921F921F920F2EFAE9AF2E0F
S1134480F9E9BF2EF9E1CF2EFFE3DF2EF02D20E076
S113449030E040E251E4C301B2010E94C00C0F902D
S11344A00F900F900F90C755DE4F688379838A83EE
S11344B09B83C95AD14025E83BEE41ED5FE30E945E
S11344C0AB27E9966CAF7DAF8EAF9FAFE99780E4E1
S11344D08F9383ED8F9383E38F938F930F2EA12C70
S11344E0B12CF0E8CF2EFFE3DF2EF02D20E030E0FA
S11344F040E251E4C301B2010E94C00C0F900F903E
S11345000F900F90C956DF4F688379838A839B830A
S1134510C759D0409F928F921F921F920F2EA12CA9
S1134520B12CC12CFFE3DF2EF02D20E030E040E27F
S113453051E4C301B2010E94C00C0F900F900F9080
S11345400F9020E030E040EA51E40E94AB27CA57C4
S1134550DF4F688379838A839B83C658D040DC010C
S1134560CB01B058CE57DF4F88839983AA83BB838E
S1134570C258D0409F928F921F921F92A12CB12CAF
S113458065016894D6F820E030E040E251E4C301CC
S1134590B2010E94C00C0F900F900F900F9020E07A
S11345A030E040E950EC0E94AB27C553DF4F6883ED
S11345B079838A839B83CB5CD0409F9280EC8F93DA
S11345C01F921F920F2EA12CB12CF0E8CF2EFFE3E7
S11345D0DF2EF02DE12CF12C00E211E420E030E09C
S11345E0A901C301B2010E94C00C0F900F900F905B
S11345F00F9020E030E040E252E40E94AB27C55423
S1134600DF4F688379838A839B83CB5BD0402FE61B
S113461032E143E05CE3C755DE4F688179818A81EA
S11346209B81C95AD1400E94AB276093BE0070930E
S1134630BF008093C0009093C10082E08093F70094
S11346400C948A16C155DE4FB881CF5AD140B1308F
S113465011F00C9448180C947B18C155DE4FE88176
S1134660CF5AD140E1110C94A2180C94EC181F926B
S11346700F920FB60F9211242F933F934F935F9392
S11346806F937F938F939F93AF93BF93EF93FF9316
S113469084B125B190E0922B27B12134A1F018F414
S11346A0203431F030C02234C9F0233411F12BC04E
S11346B067E373E00E94850287E393E00E9492021D
S11346C081E487B920C069E373E00E94850287E32F
S11346D093E00E94920282E487B915C06CE373E010
S11346E00E9485028CE393E00E94920283E487B9DE
S11346F00AC06EE373E00E9485028CE393E00E949B
S1134700920280E487B9369AFF91EF91BF91AF91FD
S11347109F918F917F916F915F914F913F912F91D5
S11347200F900FBE0F901F9018951F920F920FB607
S11347300F9211242F933F934F935F938F939F93E3
S1134740EF93FF934BB15CB148718091430390E0C8
S113475001968F7799272091420330E02817390773
S113476039F080934303FC01EA5BFC4F508301C0A2
S113477042E040934103FF91EF919F918F915F91AC
S11347804F913F912F910F900FBE0F901F9018954E
S11347901F920F920FB60F9211248F939F93EF9352
S11347A0FF939091450380914403981771F0809191
S11347B0440390E001968F77992780934403FC018A
S11347C0EA53FC4F80818CB901C05598FF91EF9159
S11347D09F918F910F900FBE0F901F90189510927C
S11347E04503109244031092430310924203992309
S11347F01CF422E02BB99F7790BD89B988E98AB966
S113480086E880BD089590914303809142039817F0
S1134810A1F08091420390E001968F7799278093CD
S11348204203FC01EA5BFC4F20818091410390E04C
S1134830982F8827820F911D089580E091E00895B4
S11348404091450350E04F5F5F4F4F7755272091CC
S1134850440330E024173507D1F3FA01EA53FC4F3F
S1134860808340934503559A089511B882E080B936
S1134870089594EA96BF06B607FEFDCF91B1987FDE
S1134880983011F0903179F483B984E886BF06B684
S113489007FEFDCF91B1987F983139F081E09034D3
S11348A029F480E0089581E0089580E0089524EAE1
S11348B034E844E926BF06B607FEFDCF91B1987FE0
S11348C0983011F09031B1F783B936BF06B607FEC0
S11348D0FDCF91B1987F903211F0983529F446BFFD
S11348E006B604FCFDCFE6CF08950E94392408954E
S11348F084E986BF06B604FCFDCF089583B984E835
S113490086BF06B607FEFDCF91B1987F81E098324D
S113491009F480E0089584E886BF06B607FEFDCF5B
S113492083B108955058BB27AA270ED027C2F0D1CF
S113493030F0F5D120F031F49F3F11F41EF4C0C1E2
S11349400EF4E095E7FBB6C1E92F3AD280F3BA172B
S1134950620773078407950718F071F49EF552C235
S11349600EF4E0950B2EBA2FA02D0B01B901900186
S11349700C01CA01A0011124FF27591B99F0593FCA
S113498050F4503E68F11A16F040A22F232F342F12
S11349904427585FF3CF469537952795A795F04060
S11349A05395C9F77EF41F16BA0B620B730B840B75
S11349B0BAF09150A1F0FF0FBB1F661F771F881F2D
S11349C0C2F70EC0BA0F621F731F841F48F4879585
S11349D077956795B795F7959E3F08F0B3CF939574
S11349E0880F08F09927EE0F97958795089590D131
S11349F058F080E891E009F49EEF91D128F040E866
S1134A0051E059F45EEF09C05BC1FCC1E92FE078C5
S1134A10D7D168F3092E052AC1F3261737074807AB
S1134A20590738F00E2E07F8E02569F0E025E06418
S1134A300AC0EF6307F8009407FADB01B9019D018E
S1134A40DC01CA01AD01EF934AD098D10AD05F913D
S1134A50552331F02BED3FE049E450FD49EC63CFA1
S1134A600895DF93DD27B92FBF7740E85FE316167B
S1134A70170648075B0710F4D92F30D29F938F9302
S1134A807F936F9313D3E4E5F0E01DD177D12F9199
S1134A903F914F915F916BD2DD2349F09058A2EA88
S1134AA02AED3FE049EC5FE3D0785D274DDFDF91ED
S1134AB065C1DCD008F481E0089539D1E3956FC174
S1134AC00CD05CC12CD140F023D130F021F45F3FF5
S1134AD019F0F0C0511197C1F3C072D198F3992322
S1134AE0C9F35523B1F3951B550BBB27AA276217AE
S1134AF07307840738F09F5F5F4F220F331F441FF3
S1134B00AA1FA9F333D00E2E3AF0E0E830D091502A
S1134B105040E695001CCAF729D0FE2F27D0660F17
S1134B20771F881FBB1F261737074807AB07B0E856
S1134B3009F0BB0B802DBF01FF2793585F4F2AF06C
S1134B409E3F510568F0B6C05EC15F3FECF3983EEE
S1134B50DCF3869577956795B795F7959F5FC9F7C9
S1134B60880F911D9695879597F90895E1E0660F52
S1134B70771F881FBB1F621773078407BA0720F0CB
S1134B80621B730B840BBA0BEE1F88F7E095089534
S1134B9004D06894B11137C108951AD188F09F5791
S1134BA090F0B92F9927B751A0F0D1F0660F771F75
S1134BB0881F991F1AF0BA95C9F712C0B13081F055
S1134BC021D1B1E008951EC1672F782F8827B85FDF
S1134BD039F0B93FCCF3869577956795B395D9F7B6
S1134BE03EF490958095709561957F4F8F4F9F4FC0
S1134BF00895E89409C097FB3EF4909580957095CC
S1134C0061957F4F8F4F9F4F9923A9F0F92F96E914
S1134C10BB279395F695879577956795B795F11189
S1134C20F8CFFAF4BB0F11F460FF1BC06F5F7F4F26
S1134C308F4F9F4F16C0882311F096E911C0772338
S1134C4021F09EE8872F762F05C0662371F096E841
S1134C50862F70E060E02AF09A95660F771F881F10
S1134C60DAF7880F9695879597F90895990F0008B4
S1134C70550FAA0BE0E8FEEF16161706E807F9072A
S1134C80C0F012161306E407F50798F0621B730BC5
S1134C90840B950B39F40A2661F0232B242B252B46
S1134CA021F408950A2609F4A140A6958FEF811DE9
S1134CB0811D089597F99F6780E870E060E008958A
S1134CC09FEF80EC0895DF93CF931F930F93FF9290
S1134CD0EF92DF927B018C01689405C0DA2EEF011C
S1134CE046D1FE01E894A5912591359145915591C0
S1134CF0AEF3EF0129DEFE019701A801DA9479F7FA
S1134D00DF90EF90FF900F911F91CF91DF91089565
S1134D1000240A9416161706180609060895002496
S1134D200A9412161306140605060895C9CF50D026
S1134D30E8F3E894E0E0BB279F57F0F02AED3FE06A
S1134D4049EC06C0EE0FBB0F661F771F881F28F0C3
S1134D50B23A62077307840728F0B25A620B730BE6
S1134D60840BE3959A9572F7803830F49A95BB0FCB
S1134D70661F771F881FD2F79048BDC1092E039480
S1134D80000C11F4882352F0BB0F40F4BF2B11F434
S1134D9060FF04C06F5F7F4F8F4F9F4F0895EF9365
S1134DA0E0FF06C0A2EA2AED3FE049EC5FEBCCDD70
S1134DB0E5DF0F90039401FC9058E1E8F0E0AEC108
S1134DC057FD9058440F551F59F05F3F71F04795B8
S1134DD0880F97FB991F61F09F3F79F0879508959D
S1134DE0121613061406551FF2CF4695F1DF08C0BC
S1134DF0161617061806991FF1CF869571056105D9
S1134E0008940895E894BB2766277727CB0197F980
S1134E1008952CDF08F48FEF08957ADF19F07FDF0F
S1134E2009F04ECF47CFB901CA0163C19F775F77BD
S1134E30C7DF98F39923B9F35523B9F3FF279517DF
S1134E4058F4E52FE91BED3070F75E3B10F0F1E408
S1134E501CC09034E0F40AC0E92FE51BED3028F7BC
S1134E609E3B10F0F1E411C0503488F4F9EA882331
S1134E702AF09A95660F771F881FDAF744232AF0E1
S1134E805A95220F331F441FDAF79F1B5F1BFF93B2
S1134E901F930F93FF92EF9279018A01BB27AB2FE7
S1134EA09B01AC0166D09701A801BF937B018C01E3
S1134EB0AA27BA2FB901CA015CD0AF919701A80102
S1134EC0EF90FF900F911F913FDD58DFB1D04F91CC
S1134ED040FF0895552747FD509509C09B01AC013B
S1134EE060E070E080E89FE3EBCDE4CE02C170DFC8
S1134EF0E8F39923D9F3940F511DBBF3915050401B
S1134F0094F059F0882332F0660F771F881F915070
S1134F105040C1F79E3F510544F7880F911D969567
S1134F20879597F908955F3FACF0983E9CF0BB27B6
S1134F30869577956795B79508F4B1609395C1F711
S1134F40BB0F58F711F460FFE8CF6F5F7F4F8F4FAF
S1134F509F4FE3CF58CF0BD011CFDADE28F0DFDE3E
S1134F6018F0952309F0A6CEABCE11244CCF28DF40
S1134F70A0F3959FD1F3950F50E0551F629FF00168
S1134F80729FBB27F00DB11D639FAA27F00DB11DC1
S1134F90AA1F649F6627B00DA11D661F829F22274A
S1134FA0B00DA11D621F739FB00DA11D621F839FD1
S1134FB0A00D611D221F749F3327A00D611D231FA7
S1134FC0849F600D211D822F762F6A2F11249F57F5
S1134FD050408AF0E1F088234AF0EE0FFF1FBB1F18
S1134FE0661F771F881F91505040A9F79E3F5105B7
S1134FF070F060CE08CF5F3FECF3983EDCF386950B
S113500077956795B795F795E7959F5FC1F7FE2B61
S1135010880F911D9695879597F908959F9387DE3C
S11350200F9007FCEE5FBBCE11F40EF449CE61C0C5
S1135030CFDED0F39923D9F3CEF39F57550B87FFD7
S113504066D00024A0E640EA9001805856959795D2
S113505028F4805C660F771F881F20F02617370717
S1135060480730F4621B730B840B202931294A2B27
S1135070A69517940794202531254A2758F7660FDB
S1135080771F881F20F026173707480730F4620B74
S1135090730B840B200D311D411DA09581F7B901BF
S11350A0842F9158880F9695879508959B01AC019C
S11350B052CFDF93D92F3BDEE695D7952AED3FE01B
S11350C049E45FE3B33A6207730784079507D7950A
S11350D02AF0A2EA49EC906837DC50DEEFE9F0E010
S11350E01DD0DD0F0BF0FADEDD0F0BF49058DF91CD
S11350F008959F3F31F0915020F4879577956795F7
S1135100B795880F911D9695879597F908959150B5
S11351105040660F771F881FD2F708959F938F938F
S11351207F936F93FF93EF939B01AC0114DFEF9197
S1135130FF91C9DD2F913F914F915F910CCFEF9279
S11351400F931F93CF93DF93E80147FF02C034E12D
S113515001C034E0E42FFF27E7FDF095F7FF03C01B
S1135160F195E195F109E32E022F2E2FAE010E9455
S11351701829CE01DF91CF911F910F91EF900895DF
S1135180662777270C94962AFC0188279927E894A8
S113519021912032E9F3293010F02E30C8F32B325C
S11351A041F02D3239F4689404C00E94F628820F2D
S11351B0911D219120532A30C0F31EF490958195BE
S11351C09F4F0895FB01DC018D910190801901101E
S11351D0D9F3990B0895BB274A3031F4992322F46B
S11351E0BDE2909581959F4F0C94FF287AE0979F9C
S11351F0902D879F802D910D11240895BB27FB01CD
S11352005527AA27880F991FAA1FA41710F0A41BBB
S113521083955051B9F7A05DAA3308F0A95DA19315
S1135220009779F7B111B1931192CB010C94F12C41
S11352306F927F929F92AF92BF92CF92DF92EF9242
S1135240FF920F931F93CF93DF93CDB7DEB72997C8
S11352500FB6F894DEBF0FBECDBF6A01B22E102F79
S11352600C3320F4FF24F394F00E02C04CE3F42E2C
S11352700F2D27E0AE014F5F5F4F0E94F92B79811C
S1135280272F2970213031F0E1FC06C0E0FC06C074
S113529060E005C06DE203C06BE201C060E2AE2DC8
S11352A0A07173FF36C0662311F084E001C083E06F
S11352B08B1510F4B81A01C0B12CA1110BC0F60162
S11352C08B2D90E2882319F091938150FBCFCB0C66
S11352D0D11CB12C662331F0F601608396012F5F57
S11352E03F4F6901C6010396E2FE05C02EE4F601B4
S11352F0208331E404C02EE6F601208331E63183B5
S11353002283FC012B2D30E22223F1F13193215031
S1135310FBCF72FF40C0662311F084E001C083E03C
S11353208B1510F4B81A01C0B12CA1110BC0F601F1
S11353308B2D90E2882319F091938150FBCFCB0CF5
S1135340D11CB12C662331F0F601608396012F5FE6
S11353503F4F6901C6010396E2FE07C029E4F60146
S113536020832EE4218326E406C029E6F601208367
S11353702EE6218326E62283FC012B2D30E2222314
S113538019F031932150FBCFFC01EB0DF11D10827C
S11353908EEF9FEFB7C0B1E0611101C0B0E04B2FB9
S11353A050E01816190624F49C012F5F3F4F02C0E9
S11353B021E030E0240F351F112329F0412F50E064
S11353C04F5F5F4F02C040E050E0420F531F2B2D50
S11353D030E04217530714F4B41A01C0B12C2E2D37
S11353E0287159F4F6012B2D30E2222319F0319360
S11353F02150FBCFCB0CD11CB12CBB2331F0F601D7
S1135400608396012F5F3F4F6901A1110BC0F60124
S11354102B2D30E3222319F031932150FBCFCB0CF9
S1135420D11CB12CF80E0A81372F3071A32E74FFD2
S113543003C0013309F4FA941F142CF42F2D2930DE
S113544018F028E001C021E0682F392F97FF02C02F
S113545060E030E0462F532F612C712C3EE2932EF6
S1135460BC01621B71099B01DC01A41BB50BE1E0CB
S1135470F0E0EC0FFD1FAE0FBF1FE12EF12CF194F5
S1135480E194F1084F3FFFEF5F0731F4F60190829A
S1135490B6016F5F7F4F6B01841795074CF024179B
S11354A0350734F4BD01660D771DFB01118101C080
S11354B010E341505109FFEF6F1A7F0AB6016F5F85
S11354C07F4F4E155F0524F0F60110836B01DACF90
S11354D04817590739F4063320F4053319F4A11099
S11354E001C011E3F6011083FB018B2D90E28823A8
S11354F019F091938150FBCFFB01EB0DF11D10824C
S113550080E090E029960FB6F894DEBF0FBECDBFC1
S1135510DF91CF911F910F91FF90EF90DF90CF908B
S1135520BF90AF909F907F906F900895A0E0B0E0FF
S1135530ECE9FAE20C94152D8B016115710521F04B
S1135540DB018C9311969C93EC015E01BFEFAB1AC7
S1135550BB0A7501C8808C2D90E00E94D12C892B48
S113556011F0E501F2CFEDE2CE1208C07E01F2E0C7
S1135570EF0EF11CC980DD24D39409C02BE2C212C2
S113558005C07E0142E0E40EF11CC980D12CE70184
S1135590219743E050E06AEC70E0CE010E94D92CE0
S11355A0892BC1F4239645E050E065EC70E0CE0110
S11355B00E94D92C892B09F425960115110519F09F
S11355C0D801CD93DC93D11006C160E070E080E88F
S11355D09FE70AC143E050E062EC70E0CE010E9414
S11355E0D92C892B59F40115110509F4F9C0B2E03D
S11355F0EB0EF11CF801F182E082F2C0F70160E0E9
S113560070E0CB01C0E0D0E07F01A0EDAA2EAC0C8D
S113561029E02A1530F14D2D4260B42E2D2D28702D
S1135620D2FE04C0211125C0219623C02111219747
S1135630A5E0B0E09B01AC010E94042D660F771F2A
S1135640881F991F6A0D711D811D911D6839A9E973
S11356507A078A07A9E19A0760F0BD2DB660BB2ED0
S113566008C02EEFA2120AC0D3FC50C04D2D4860D2
S1135670B42E3196D701CC90DB2CC6CF2C2D2F7DA8
S1135680253409F043C0A081AD3241F4BD2DB06191
S1135690DB2E7F0122E0E20EF11C0CC07F01AB3255
S11356A031F04FEFE41AF40A21E030E006C0A2E042
S11356B0EA0EF11CA18122E030E0A053AA3018F0D8
S11356C0E21AF30A23C0F70120E030E02038BCE0FE
S11356D03B075CF4A901440F551F440F551F240FC9
S11356E0351F220F331F2A0F311DAF014F5F5F4F4C
S11356F07A01A081A053AA3010F4FA01E7CFD4FEB6
S113570003C0319521953109C20FD31FD1FE09C0C1
S11357100115110531F0E1E0EE1AF108D801ED921E
S1135720FC920E94F9252D2D2370233019F04B0192
S11357305C0106C04B015C01B7FAB094B7F8B094B1
S113574020E030E0A901C501B4010E945925882355
S113575009F43EC0D7FF06C0D195C195D10901EE29
S113576010E002C009EF10E06801B8E1CB1AD108DB
S113577090E2E92EF12CCE15DF0574F0F8012591A5
S1135780359145915491C501B4010E94AB274B0159
S11357905C01CE19DF09EFCF04501109F594E794A9
S11357A00C151D0541F78A2D880F8B2D881F8F3FFF
S11357B049F020E030E0A901C501B4010E94592557
S11357C0811106C082E290E09093470480934604DE
S11357D0C501B40109C060E070E080E89FEF04C037
S11357E060E070E080EC9FE7CDB7DEB7ECE00C94AE
S11357F0312D283008F027E03327DA01990F311DC5
S113580087FD916000966105710539F432602E5F61
S11358103D9330E32A95E1F708959F3F30F08038B7
S11358207105610509F03C5F3C5F3D93913008F0E0
S11358308068911DDF93CF931F930F93FF92EF9294
S1135840192F987F9695E92F96959695E90FFF273E
S1135850E95AFE4F99273327EE24FF24A701E701D5
S113586005900894079428F4360FE71EF81E491F84
S1135870511D660F771F881F991F0694A1F7059085
S1135880079428F4E70EF81E491F561FC11D770F11
S1135890881F991F661F0694A1F70590079428F4A2
S11358A0F80E491F561FC71FD11D880F991F661F69
S11358B0771F0694A1F70590079420F4490F561F0B
S11358C0C71FD81F990F661F771F881F0694A9F753
S11358D084911095177041F0D695C79557954795C3
S11358E0F794E7941A95C1F7EDEFF0E068941590FA
S11358F0159135916591959105907FE27395E11825
S1135900F10A430B560BC90BD009C0F7E10CF11E89
S1135910431F561FC91FD01D7EF4703311F48A959E
S1135920E6CFE894015030F0080F0AF4002702177C
S113593008F4202F2395022F7A3328F079E37D93FE
S11359402A95E9F710C07D932A9589F606949795D0
S11359506795379517951794E118F10A430B560B81
S1135960C90BD00998F023957E9173957A3308F08A
S113597070E37C932013B8F77E9170617D9330F0CF
S1135980839571E37D9370E32A95E1F71124EF90F9
S1135990FF900F911F91CF91DF91992787FD9095EB
S11359A0089591112EC0803219F089508550D0F796
S11359B00895FB01DC014150504088F08D91813401
S11359C01CF08B350CF4805E659161341CF06B35F2
S11359D00CF4605E861B611171F3990B0895881BAA
S11359E0FCCFDC01FC01672F71917723E1F732973B
S11359F004C07C916D9370836291AE17BF07C8F3A6
S1135A0008959927882708950E94462DA59F900DF3
S1135A10B49F900DA49F800D911D112408952F9281
S1135A203F924F925F926F927F928F929F92AF922A
S1135A30BF92CF92DF92EF92FF920F931F93CF9377
S1135A40DF93CDB7DEB7CA1BDB0B0FB6F894DEBF0E
S1135A500FBECDBF09942A88398848885F846E8434
S1135A607D848C849B84AA84B984C884DF80EE807E
S1135A70FD800C811B81AA81B981CE0FD11D0FB687
S1135A80F894DEBF0FBECDBFED010895A29FB00113
S1135A90B39FC001A39F700D811D1124911DB29F5E
S1115AA0700D811D1124911D0895F894FFCFFF
S1135AAE00030000000000000000000000000000E1
S1135ABE00000000000000000000000000000000D4
S1135ACE00000000000000000000000000000000C4
S1135ADE00000000000000000000000000000000B4
S1135AEE00000000000000000000000000000000A4
S1135AFE00000000000000000000000040406F1293
S1135B0E033C000000000000000000000000000044
S1135B1E0000000000000000000000000000000073
S1135B2E000000000000000000000000CDCC4C3D41
S1135B3ECDCC4C3E0000000200000000000000002E
S1135B4E0000000000000000000000000000000043
S1135B5E000000000000007273007264007267643B
S1135B6E00737461727400726D73007361007272EB
S1135B7E00474F544F67787900474F544F6C7879EC
S1135B8E0072706C0072707300534554777000434A
S1135B9E53560044495350636F6D7070004449531B
S1135BAE50636F6D707200444953506163637000AB
S1135BBE4449535061636372004449535072657192
S1135BCE61004449535072657173004449535072D5
S1135BDE65716400444953506469720044495350DA
S1135BEE706F73004449535076656C0044495350AA
S1135BFE656E6300444953506D3170776D004449AE
S1135C0E53506D3270776D00444953506D3152507C
S1135C1E4D00444953506D3252504D005345546318
S1135C2E670053455477764B500053455477764B63
S1135C3E49005345547776556D696E005345547734
S1135C4E76556D6178005345547776496300534514
S1135C5E547776496D6178005345547776465200F1
S1135C6E53455477764B4300534554614B50005380
S1135C7E4554614B4900534554614B4400534554BC
S1135C8E61556D696E0053455461556D61780053CD
S1135C9E45546149630053455461496D617800531D
S1135CAE455461465200534554614B430053455489
S1135CBE6F4B50005345546F4B49005345546F4B33
S1135CCE44005345546F556D696E005345546F55DA
S1135CDE6D6178005345546F4963005345546F49C1
